:040000001BEF00F002
:100008004B82000E366E9EAA07D0AECF36F09E9A6F
:1000180003D04906D8A04A069EBA04D049504A10CF
:10002800D8A4F7D73650B2EC03F04B92110086EF04
:0200380003F0D3
:10060000000039C03BF03C6A3D6A38343B3601E3B8
:100610003C803B50456E4550D8A409D0000E376E43
:10062000000E386E000E396E000E3A6E1200170E74
:100630003B6E37C03CF038C03DF039C03EF03B283F
:100640003F6E04D0D8903E323D323C323F2EFAD736
:100650003C50406E388EFF0E3716FF0E3816000ED7
:1006600039163750416E3850426E3950436E446AE5
:100670008E0E455E45AE0DD04550800A8F0FD8A036
:10068000CDD7D8904432433242324132453EF9D739
:100690000DD0170E456407D0C1D7D89041364236E9
:1006A0004336443645064550D8A4F7D74050D8B411
:1006B00008D0441E431E421E416C000E42224322BB
:1006C000442241C037F042C038F043C039F044C042
:1006D0003AF01200949C948E0F013A9F550E466E8C
:1006E000CE0E476E420E486E46C037F047C038F017
:1006F00048C039F001EC03F03750AF6EF28EF28C47
:100700009D8A200EAC6E900EAB6E1200700EF66ECF
:10071000070EF76E000EF86E0900F5CF49F00900DC
:10072000F5CF4AF000EE01F0340EEE6AE806FDE186
:100730004B904B920001A9EF03F0948894860F012F
:100740003A973A99800EC76E280EC66E9F0EC86EF5
:100750001200700ED36EC00E9B6E6AEC03F09DEC1F
:1007600003F0FFD7356E9EA8FED735C0ADFF12004F
:02077000E8039C
:020000040030CA
:0E000000FF380F3CFFBF85FF0FC00FE00F4021
:00000001FF
