:0400000074EF00F0A9
:100008005482E1CF35F0E2CF36F0D9CF37F0DACFEE
:1000180038F09EAA5BD0AECF39F09D9A000193517B
:10002800D8A419D03A0E3918D8A405D02D50D8A480
:1000380002D0010E0CD0230E3918D8A40AD02D04F2
:10004800D8A407D0010E936F000E926F02D02D6EC8
:100058003CD0000EFCD70D0E3918D8A405D02C5072
:10006800D8A402D0010E16D00A0E3918D8A414D07C
:100078002C04D8A411D09251C80FD96EDA6ADF6A5D
:10008800922B5BEC06F0000E926F000E936F010E40
:100098002E6E000E2C6E19D0320E926114D02C04E4
:1000A800D8A409D0000E2C6E9251C80FD96EDA6A06
:1000B8000D0EDF6E922B9251C80FD96EDA6A39C0D5
:1000C800DFFF922B02D0000E926F9D8A38C0DAFFB4
:1000D80037C0D9FF36C0E2FF35C0E1FF54921100A6
:0400E800E2EF06F04D
:100600000000000E0101006F000E016F000E056F6B
:10061000000E046F0A0EA3EC07F00101006F290E13
:100620003F6E960E3E6E7F0EE82EFED73E2EFCD716
:100630003F2EFAD700000B0EA3EC07F00101016F6B
:10064000015100C13EF03F6A3EC03FF03E6A3E109D
:10065000286E3F50296E282807E12928D8A404D005
:10066000000E296E000E286E28C004F129C005F185
:1006700000019651C80FD96EDA6ADF503E6E3E50C7
:100680000101026F036B28C03BF029C03CF0000160
:100690009651C80FD96EDA6ADF503D6E69EC07F0EB
:1006A000284A292AD00E3E6ECA0EE82EFED73E2ECC
:1006B000FCD7000E0101076F000E066F18D006511F
:1006C00028243B6E075129203C6E0651980FD96EA5
:1006D000DA6ADF503D6E69EC07F0D00E3E6ECA0E4E
:1006E000E82EFED73E2EFCD70101064B072B025108
:1006F000065D03510759D8A0E2D7025128260351BD
:100700002922290E3F6E960E3E6E7F0EE82EFED7F2
:100710003E2EFCD73F2EFAD7000029C03AF00A0E31
:1007200005EC07F0290E3F6E960E3E6E7F0EE82E0A
:10073000FED73E2EFCD73F2EFAD7000028C03AF055
:100740000B0E05EC07F0290E3F6E960E3E6E7F0EE7
:10075000E82EFED73E2EFCD73F2EFAD7000094C0DD
:1007600001F095C002F005C103F004C104F0056872
:1007700012003C6E3A0EB0EC07F0D00E3B6ECA0E83
:10078000E82EFED73B2EFCD7230EB0EC07F0D00EA0
:100790003B6ECA0EE82EFED73B2EFCD73C50D8A4A9
:1007A0001BD0000E3E6E000E3D6E3D50010FD96E07
:1007B000DA6ADF50B0EC07F0D00E3B6ECA0EE82EBE
:1007C000FED73B2EFCD73D4A3E2A3E5027E11E0E67
:1007D0003D5CD8B023D0E9D7210EB0EC07F0D00EA5
:1007E0003B6ECA0EE82EFED73B2EFCD7FE0EB0ECB9
:1007F00007F0D00E3B6ECA0EE82EFED73B2EFCD77C
:100800002A50B0EC07F0D00E3B6ECA0EE82EFED791
:100810003B2EFCD7000E2B6E000E2A6E0D0EB0EC98
:1008200007F0D00E3B6ECA0EE82EFED73B2EFCD74B
:100830000A0EB0EC07F0000E3E6E320E3D6E09D08F
:100840003D50FA08D96EDA6AFF0EDF6E3D06D8A079
:100850003E063D503E10D8A4F3D7000E3E6E000E6B
:100860003D6E08D03D50010FD96EDA6AFF0EDF6E83
:100870003D4A3E2A3E5005E11E0E3D5CD8B01200B6
:10088000F1D71200000E446E000E406E000E416E55
:10089000000E436E00019651C80FD96EDA6ADF5020
:1008A000426E080E426405D0010E2B6E050E2A6EB4
:1008B0001200520E3F6E2B0E3E6E000EE82EFED73B
:1008C0003E2EFCD73F2EFAD700D042C03AF0000EA1
:1008D00005EC07F0520E3F6E2B0E3E6E000EE82E1A
:1008E000FED73E2EFCD73F2EFAD700D0432A000E6B
:1008F000446E26D0290E3F6E960E3E6E7F0EE82E79
:10090000FED73E2EFCD73F2EFAD700004450980F5A
:10091000D96EDA6ADF503A6E4350442405EC07F092
:10092000290E3F6E960E3E6E7F0EE82EFED73E2EAF
:10093000FCD73F2EFAD7000043504424406E442A8F
:100940004250445CD8A0D6D7090E3F6E1E0E3E6EB4
:10095000E40EE82EFED73E2EFCD73F2EFAD700D06D
:100960004050A3EC07F0416E090E3F6E1E0E3E6E26
:10097000E40EE82EFED73E2EFCD73F2EFAD700D04D
:10098000000E2B6E94C001F095C002F041C003F040
:100990001200000E0101096F000E016F000E066FBC
:1009A000020E006F000E086F000E076F000E096F39
:1009B0000DD00951980FD96EDA6A020E0925E16E41
:1009C000E26A010EE222DFCFE7FF092B0051095D49
:1009D000D8A0EFD7035102C13EF03F6A3EC03FF0BE
:1009E0003E6A3E10076F3F50086F050E3F6E0F0EB8
:1009F0003E6EF10EE82EFED73E2EFCD73F2EFAD7E4
:100A0000000007C13BF008C13CF040EC07F03E6E2F
:100A10003E500101046F056B050E3F6E0F0E3E6EDA
:100A2000F10EE82EFED73E2EFCD73F2EFAD700005F
:100A30000101074B082B04290511D8A404D0FF0E8F
:100A4000B0EC07F0120094C001F095C002F0020E65
:100A50000627000E0B6F000E0A6F14D00651010F0F
:100A60000A25D96EDA6A0A5107253B6E0B51082117
:100A70003C6E40EC07F0DF6E010106510A25016F64
:100A80000A4B0B2B04510A5D05510B59D8A0E6D730
:100A90000151020FD96EDA6ADF6A12003CC03EF0E3
:100AA0003F6A406A3B343E3601E33F803E500001DE
:100AB000FF6FFF51D8A409D0000E3A6E000E3B6EB6
:100AC000000E3C6E000E3D6E1200170E3E6E3AC0D8
:100AD0003FF03BC040F03CC041F03E28426E04D0A5
:100AE000D890413240323F32422EFAD73F50000177
:100AF000FA6F3B8EFF0E3A16FF0E3B16000E3C16A9
:100B00003A50FB6F3B50FC6F3C50FD6FFE6B8E0EFE
:100B1000FF5FFFAF0DD0FF51800A8F0FD8A0CCD759
:100B2000D890FE33FD33FC33FB33FF3FF9D70DD0B4
:100B3000170EFF6507D0C0D7D890FB37FC37FD37BD
:100B4000FE37FF07FF51D8A4F7D7FA51D8B408D021
:100B5000FE1FFD1FFC1FFB6D000EFC23FD23FE236B
:100B6000FBC03AF0FCC03BF0FDC03CF0FEC03DF0E5
:100B70001200000E3D6E290E3C6E960E3B6E7F0EEF
:100B8000E82EFED73B2EFCD73C2EFAD70000000EF5
:100B9000A3EC07F03E6E290E3C6E960E3B6E7F0E68
:100BA000E82EFED73B2EFCD73C2EFAD700003D2A7C
:100BB0003E28D8B42ED0000E3F6E22D0290E3C6EB7
:100BC000960E3B6E7F0EE82EFED73B2EFCD73C2EBA
:100BD000FAD700003F501F0FD96EDA6A3D503F240C
:100BE000A3EC07F0DF6E290E3C6E960E3B6E7F0E77
:100BF000E82EFED73B2EFCD73C2EFAD700003F2A2A
:100C00003E503F5CD8A0DAD7000E2B6E000E2A6E45
:100C100002D0000E526E3EC027F0120095C045F083
:100C20005250D8A404D0010E2B6E030E2A6E210E52
:100C300000019419D8A437D02B50D8B41DD0120E6F
:100C40004518D8B419D033D093EC07F030D001EC6C
:100C500003F02DD0C9EC04F02AD0BDEC06F027D06B
:100C600042EC04F024D093EC06F00009D8A41FD085
:100C7000010E2B6E040E1AD04550010AD8B4E7D7E6
:100C8000030AD8B4E7D7010AD8B411D0130AD8B4EC
:100C9000E4D7010AD8B4D8D7030AD8B4E1D7010AF7
:100CA000D8B4E1D704D0010E2B6E060E2A6E2B505D
:100CB000B9EC03F01200000E326E000E316E000E21
:100CC000306E000E2F6EC8C094F0C9C095F0020EB1
:100CD0009519D8B423D0000E346E000E336E12D0A6
:100CE0003350CA0FD96EDA6A3350980FE16EE26A58
:100CF000DFCFE7FF020E3324316E000E3420326E58
:100D0000334A342A3350CA0FD96EDA6ADF50D8A476
:100D1000E7D731C096F032C097F01200CAC098F001
:100D2000CBC099F01200000E3E6E010E3D6E000128
:100D30009651C80FD96EDA6ADF503C6E3C502718C6
:100D4000D8B402D0000E1200000E3E6E10D03E50FD
:100D5000980FD96EDA6A3E501F0FE16EE26ADE50DC
:100D6000E618D8B403D0000E3D6E05D03E2A2750B9
:100D70003E5CD8A0ECD73D5012003F68000E416E9B
:100D8000000E406E4150B0EC07F04050B0EC07F060
:100D9000D00E3E6ECA0EE82EFED73E2EFCD740C0C7
:100DA0003BF041C03CF03FC03DF069EC07F0404AE9
:100DB000412A800E415CD8A0E5D794C001F095C0CF
:100DC00002F01200380EF66E0F0EF76E000EF86E7F
:100DD00000EE46F010EE0EF00900F5CFEEFFE55004
:100DE000E150FAE100EE60F09A0EEE6AE806FDE1ED
:100DF00000EE01F02E0EEE6AE806FDE154905492EA
:100E0000000EF86E000157EF07F03D6E290E3C6EA4
:100E1000960E3B6E7F0EE82EFED73B2EFCD73C2E67
:100E2000FAD700003DC0A9FF3AC0A8FFA69EA69C25
:100E3000A684F29E550EA76EAA0EA76EA682F28E0B
:100E4000A1A8FED7A1981200949C948E0F013A9FFE
:100E5000F28EF28C9D8A200EAC6E900EAB6E550E0B
:100E6000436ECE0E446E420E456E43C03AF044C00F
:100E70003BF045C03CF04EEC05F03A50AF6E12002E
:100E8000BBEC07F0A00E7BEC07F03C507BEC07F0CE
:100E90003B507BEC07F0BBEC07F0A10E7BEC07F0BE
:100EA000AAEC07F03D6EB6EC07F03D501200700E54
:100EB000D36EC00E9B6E24EC07F087EC07F0B9EC04
:100EC00005F02E50D8B4FDD70EEC06F0000E2E6EB5
:100ED000F8D7BBEC07F0A00E7BEC07F0536E3C504C
:100EE0007BEC07F03B507BEC07F03D507BEC07F0D0
:100EF000B6EC07F012003A6E3AC0C9FF9EA6FED7C4
:100F00009E96C5AC02D0010E1200000E120094880D
:100F100094860F013A973A99800EC76E280EC66ED6
:100F20009F0EC86E120094C001F095C002F0000E32
:100F3000036E000E046E1200000102030405060792
:100F40000809E80301013A6E3AC0A9FFA69EA680EF
:100F5000A8501200C5869EA6FED79E96C9501200C4
:100F60003A6E9EA8FED73AC0ADFF1200C5849EA679
:100F7000FED79E961200C5809EA6FED79E961200B2
:020000040030CA
:0E000000FF380F3CFFBF85FF0FC00FE00F4021
:00000001FF
