:040000007BEF00F0A2
:100008005482E1CF07F0E2CF08F0D9CF09F0DACF78
:100018000AF09EAA62D0AECF0BF09D9A02016551FC
:10002800D8A419D03A0E0B18D8A405D04F50D8A48C
:1000380002D0010E0CD0230E0B18D8A40AD04F04FE
:10004800D8A407D0010E656F000E646F02D04F6E02
:1000580043D0000EFCD70A0E0B18D8A405D04E507A
:10006800D8A402D0010E19D00D0E0B18D8A417D0A1
:100078004E04D8A414D0640E6425D96EDA6A010E31
:10008800DA22DF6A642BDBEC0AF0000E0201646FEF
:10009800000E656F010E506E000E4E6E1DD0640E80
:1000A800646118D04E04D8A40BD0000E4E6E640EB6
:1000B8006425D96EDA6A010EDA220A0EDF6E642B25
:1000C800640E6425D96EDA6A010EDA220BC0DFFFEE
:1000D800642B02D0000E646F9D8A0AC0DAFF09C043
:1000E800D9FF08C0E2FF07C0E1FF5492110051EFA9
:0200F8000AF00C
:100600000000000E136E000E146E000E156E000E2C
:10061000166E000E1C6E000E1B6E000E1E6E000E7F
:100620001D6E0A0E87EC0CF0136E290E126E960EDC
:10063000116E7F0EE82EFED7112EFCD7122EFAD7A0
:1006400000000B0E87EC0CF0146E0C0E87EC0CF017
:10065000156E290E126E960E116E7F0EE82EFED7C5
:10066000112EFCD7122EFAD700000D0E87EC0CF0DD
:10067000166E145013C011F0126A11C012F0116AF4
:1006800011104B6E12504C6E165015C011F0126ABC
:1006900011C012F0116A11101D6E12501E6E4B28FF
:1006A00007E14C28D8A404D0000E4C6E000E4B6E0F
:1006B0001D2807E11E28D8A404D0780E1E6E000E57
:1006C0001D6E4BC01BF04CC01CF0640E0001622577
:1006D000D96E010E6321DA6EDF50116E1150176E64
:1006E000186AFF0E116E770E126E4B50115E4C5051
:1006F000125A1150175C12501858D8A006D0010E8B
:100700000001CF6F070E4D6E12004BC00DF04CC0B4
:100710000EF0640E6225D96E010E6321DA6EDF5091
:100720000F6E53EC0CF04B4A4C2AD00E116ECA0ED1
:10073000E82EFED7112EFCD7000E1A6E000E196E91
:1007400025D019C00CF01AC00DF0000E0F6E0A0E65
:100750000E6EA4EC0BF00C500D10D8B4897E19501D
:100760004B240D6E1A504C200E6E1950640FD96E2A
:10077000DA6ADF500F6E53EC0CF0D00E116ECA0E19
:10078000E82EFED7112EFCD7194A1A2A1750195CE9
:1007900018501A58D8A0D5D717504B2618504C22AD
:1007A000290E126E960E116E7F0EE82EFED7112EB8
:1007B000FCD7122EFAD700004CC00CF00A0EE5EC64
:1007C0000BF0290E126E960E116E7F0EE82EFED7DC
:1007D000112EFCD7122EFAD700004BC00CF00B0ED6
:1007E000E5EC0BF0290E126E960E116E7F0EE82EC0
:1007F000FED7112EFCD7122EFAD700001D287F0E2F
:100800001E58D8B07CD71DC00DF01EC00EF01CC005
:100810000FF053EC0CF0D00E116ECA0EE82EFED77E
:10082000112EFCD7010E1D240D6E000E1E200E6E23
:100830001BC00FF053EC0CF0020E1D26000E1E2202
:10084000290E126E960E116E7F0EE82EFED7112E17
:10085000FCD7122EFAD700001EC00CF00C0EE5ECEF
:100860000BF0290E126E960E116E7F0EE82EFED73B
:10087000112EFCD7122EFAD700001DC00CF00D0E61
:10088000E5EC0BF0290E126E960E116E7F0EE82E1F
:10089000FED7112EFCD7122EFAD7000060C000F14F
:1008A00061C001F11CC002F11BC003F10101046928
:1008B0001200000E0001D86F000EDA6F000ED96F23
:1008C000780ED16F000ED06F000EDD6F000EDE6F60
:1008D000000EDF6F000EDC6F000EDB6FDBC00CF074
:1008E000DCC00DF0000E0F6E0A0E0E6EA4EC0BF0C5
:1008F0000C500D10D8B4897EDBC00DF0DCC00EF0BA
:100900003CEC0CF00001D86FD829D8A406D0010E19
:10091000D925D96F000EDA21DA6FDB4BDC2B780E8C
:10092000DC5DD8A0DBD7D0C014F0D1C015F004EC4A
:100930000CF014C01BF015C01CF016C01DF0D9C07F
:1009400014F0DAC015F004EC0CF014C018F015C067
:1009500019F016C01AF022EC08F018C027F019C0E0
:1009600028F01AC029F0000E2A6EC80E2B6E420E17
:100970002C6EA8EC07F027C0DDF028C0DEF029C0FF
:10098000DFF0C80E0001DE1905E1420EDF19DD11AE
:10099000D8B414D0DDC027F0DEC028F0DFC029F0C5
:1009A000000E2A6E200E2B6E410E2C6EA8EC07F066
:1009B00027C0DDF028C0DEF029C0DFF0000E1B6E7E
:1009C000C80E1C6E420E1D6EDDC018F0DEC019F0A0
:1009D000DFC01AF022EC08F018C027F019C028F088
:1009E0001AC029F095EC08F027C0D2F028C0D3F047
:1009F000000E396E0A0E386EDDC027F0DEC028F01A
:100A0000DFC029F095EC08F027C036F028C037F099
:100A100099EC0AF036C03EF037C03FF0000E416E50
:100A20000A0E406E18EC0BF03EC0D4F03FC0D5F07B
:100A3000DDC027F0DEC028F0DFC029F095EC08F01B
:100A400027C03EF028C03FF0000E416E0A0E406EF7
:100A500018EC0BF03EC0D6F03FC0D7F060C000F1FC
:100A600061C001F10001D251E20FD96EDA6ADF50A4
:100A70000101026F0001D451E20FD96EDA6ADF5032
:100A80000101036F0001D651E20FD96EDA6ADF501F
:100A90000101046F120061C048F0000E496E0001B0
:100AA000EC51D8A404D0010ECF6F030E4D6E210E71
:100AB0006019D8A48AD0CF51D8B46DD0120E48187E
:100AC000D8B469D086D07DEC0CF083D001EC03F073
:100AD00080D0EEEC05F07DD059EC04F07AD080ECBB
:100AE0000BF077D0FEEC08F074D01EEC07F071D05C
:100AF00050EC0BF00009D8A448D00E0E87EC0CF097
:100B00004A6E06D0000E4A6E0AD0010E496E07D01A
:100B10004A50030AD8B4F9D7FC0AD8B4F3D74A2A02
:100B2000010E0001CF6F4904D8B404D0000E476E07
:100B3000040E03D0000E476E080E466E46C04DF000
:100B40004950D8B404D0000E4A6EFEEC08F0110EE5
:100B5000456E3C0E446ECB0EE82EFED7442EFCD7DD
:100B6000452EFAD700004AC00CF00E0EE5EC0BF053
:100B7000110E456E3C0E446ECB0EE82EFED7442E71
:100B8000FCD7452EFAD7000024D0000E0C6E0E0EB6
:100B9000E5EC0BF01ED04850010AD8B497D7030AF1
:100BA000D8B497D7010AD8B49AD7070AD8B494D73B
:100BB000140AD8B497D7010AD8B485D7030AD8B491
:100BC00094D7010AD8B494D704D0010ECF6F060E83
:100BD0004D6E0001CF518CEC06F01200000E1A6E23
:100BE000000E146E000E176E020E136E000E196EBC
:100BF000000E186E000E1A6E0BD01A50640FD96ECC
:100C0000DA6A1A50150FE16EE26ADFCFE7FF1A2A9F
:100C100013501A5CD8A0F1D7165015C011F0126A03
:100C200011C012F0116A1110186E1250196E050ED3
:100C3000126E0F0E116EF10EE82EFED7112EFCD79C
:100C4000122EFAD7000018C00DF019C00EF03CECBF
:100C50000CF0116E11501B6E1C6A050E126E0F0EF9
:100C6000116EF10EE82EFED7112EFCD7122EFAD7F8
:100C700000001C5094EC0CF01B5094EC0CF0184A43
:100C8000192A1B281C10D8A404D0FF0E94EC0CF0D9
:100C9000120060C000F161C001F1020E1726000EC3
:100CA0001E6E000E1D6E2AD01DC00CF01EC00DF071
:100CB000000E0F6E0A0E0E6EA4EC0BF00C500D1011
:100CC000D8B4897E000E116E010E126E17501126D7
:100CD000000E12221D501124D96E1E501220DA6E01
:100CE0001D5018240D6E1E5019200E6E3CEC0CF099
:100CF000DF6E17501D24146E1D4A1E2A1B501D5CEA
:100D00001C501E58D8A0D0D7010E1424D96EDA6A10
:100D1000010EDA22DF6A12000E6E3A0E94EC0CF02D
:100D2000D00E0D6ECA0EE82EFED70D2EFCD7230E68
:100D300094EC0CF0D00E0D6ECA0EE82EFED70D2EE0
:100D4000FCD70E50D8A41DD0000E106E000E0F6EF2
:100D5000000E0F24D96E010E1020DA6EDF5094ECD5
:100D60000CF0D00E0D6ECA0EE82EFED70D2EFCD75D
:100D70000F4A102A105028E1640E0F5CD8B024D01E
:100D8000E7D7210E94EC0CF0D00E0D6ECA0EE82EB3
:100D9000FED70D2EFCD7FE0E94EC0CF0D00E0D6E8F
:100DA000CA0EE82EFED70D2EFCD74D5094EC0CF059
:100DB000D00E0D6ECA0EE82EFED70D2EFCD7000EFB
:100DC0000001CF6F000E4D6E0A0E94EC0CF0D00EA9
:100DD0000D6ECA0EE82EFED70D2EFCD70D0E94EC2C
:100DE0000CF0000E106E640E0F6E0DD00F50C80880
:100DF000D96E1050D8A0E82A0108DA6EFF0EDF6E17
:100E00000F06D8A010060F501010D8A4EFD7000E70
:100E1000106E000E0F6E0AD0000E0F24D96E010E58
:100E20001020DA6EFF0EDF6E0F4A102A105005E117
:100E3000640E0F5CD8B01200EFD71200000E166ED1
:100E4000000E126E000E136E000E156E640E000181
:100E50006225D96E010E6321DA6EDF50146E080E22
:100E6000146405D0010ECF6F050E4D6E1200520EA8
:100E7000116E2B0E106E000EE82EFED7102EFCD732
:100E8000112EFAD700D014C00CF0000EE5EC0BF0D8
:100E9000520E116E2B0E106E000EE82EFED7102E85
:100EA000FCD7112EFAD700D0152A000E166E26D0C8
:100EB000290E116E960E106E7F0EE82EFED7102EA4
:100EC000FCD7112EFAD700001650640FD96EDA6ADB
:100ED000DF500C6E15501624E5EC0BF0290E116E48
:100EE000960E106E7F0EE82EFED7102EFCD7112E18
:100EF000FAD7000015501624126E162A1450165CEC
:100F0000D8A0D6D7090E116E1E0E106EE40EE82E74
:100F1000FED7102EFCD7112EFAD700D0125087EC36
:100F20000CF0136E090E116E1E0E106EE40EE82EFC
:100F3000FED7102EFCD7112EFAD700D0000E0001DC
:100F4000CF6F60C000F161C001F113C002F1120067
:100F500029C02DF02E6A2F6A28342D3601E32E8009
:100F60002D50306E3050D8A407D0000E276E000EE2
:100F7000286E000E296E12002CC02DF02E6A2F6AEA
:100F80002B342D3601E32E802D50356E3550D8A4EC
:100F900007D0000E276E000E286E000E296E12007C
:100FA00035507B0F302629C035F02C50351A800E75
:100FB0003516288E2B8EFF0E2A16FF0E2B16000ECE
:100FC0002C16000E316E000E326E000E336E070EC0
:100FD000346E27A006D02A5031262B5032222C50B6
:100FE0003322D890293228322732D8902A362B360D
:100FF0002C36342EEED7090E346E27A006D02A5098
:1010000031262B5032222C503322D89029322832CC
:101010002732D890333232323132342EEED731C0CB
:101020000CF032C00DF033C00EF030C00FF035C000
:1010300010F059EC09F00CC027F00DC028F00EC0DC
:1010400029F012001AC01EF01F6A206A19341E36D9
:1010500001E31F801E50256E2550D8A407D0000E36
:10106000186E000E196E000E1A6E12001DC01EF0D2
:101070001F6A206A1C341E3601E31F801E50266E34
:101080002650D8A407D0000E186E000E196E000E60
:101090001A6E1200000E226E000E236E000E246ED9
:1010A0002650890F255E1AC026F01D50261A800E84
:1010B0002616198EFF0E1816FF0E1916000E1A1698
:1010C0001C8EFF0E1B16FF0E1C16000E1D16180E92
:1010D000216ED8902236233624361B50185C1C50C3
:1010E00019581D501A58D8A007D01B50185E1C5014
:1010F000195A1D501A5A2280D890183619361A36A5
:10110000212EE7D722C00CF023C00DF024C00EF032
:1011100025C00FF026C010F059EC09F00CC018F0F3
:101120000DC019F00EC01AF0120029C02BF02C6A65
:101130002D6A28342B3601E32C802B50356E355028
:10114000D8A409D0000E276E000E286E000E296E5E
:10115000000E2A6E1200170E2B6E27C02CF028C02E
:101160002DF029C02EF02B282F6E04D0D8902E32CF
:101170002D322C322F2EFAD72C50306E288EFF0EA7
:101180002716FF0E2816000E29162750316E2850FC
:10119000326E2950336E346A8E0E355E35AE0DD008
:1011A0003550800A8F0FD8A0CDD7D8903432333243
:1011B00032323132353EF9D70DD0170E356407D0B3
:1011C000C1D7D890313632363336343635063550BD
:1011D000D8A4F7D73050D8B408D0341E331E321EEE
:1011E000316C000E32223322342231C027F032C05B
:1011F00028F033C029F034C02AF012001368000E22
:10120000156E000E146E14C00CF015C00DF0000E1B
:101210000F6E0A0E0E6EA4EC0BF00C500D10D8B42D
:10122000897ED00E116ECA0EE82EFED7112EFCD785
:1012300014C00DF015C00EF013C00FF053EC0CF0FD
:10124000144A152A800E155CD8A0DDD7290E126E1F
:10125000960E116E7F0EE82EFED7112EFCD7122EA1
:10126000FAD70000FF0E0C6E0A0EE5EC0BF0290E0B
:10127000126E960E116E7F0EE82EFED7112EFCD741
:10128000122EFAD70000FF0E0C6E0B0EE5EC0BF0E1
:10129000290E126E960E116E7F0EE82EFED7112EBD
:1012A000FCD7122EFAD7000060C000F161C001F136
:1012B00012000F50D8B405D00C500D100E10D8A449
:1012C0000CD0000E0C6E000E0D6E000E0E6E120095
:1012D0000F2AD8900E320D320C32000E0C14116E03
:1012E000000E0D14126EFE0E0E14136E115012101D
:1012F0001310D8B40CD0ECD70F2A010E0C26000E18
:101300000D22000E0E22D8900E320D320C32000E3D
:101310000C14116E000E0D14126EFF0E0E14136ECF
:10132000115012101310D8B406D0E6D70F06D8907B
:101330000C360D360E360DBE03D0020E0F60F6D7FA
:101340000FA00D9ED8900F320F500E121050D8A43F
:101350000E8E0CC00CF00DC00DF00EC00EF0120081
:10136000000E0F6E290E0E6E960E0D6E7F0EE82E7D
:10137000FED70D2EFCD70E2EFAD70000000E87ECFC
:101380000CF0106E290E0E6E960E0D6E7F0EE82E6E
:10139000FED70D2EFCD70E2EFAD700000F2A1028EC
:1013A000D8B42FD0000E116E22D0290E0E6E960EDC
:1013B0000D6E7F0EE82EFED70D2EFCD70E2EFAD71F
:1013C00000001150C60FD96EDA6A0F50112487EC55
:1013D0000CF0DF6E290E0E6E960E0D6E7F0EE82E4F
:1013E000FED70D2EFCD70E2EFAD70000112A105072
:1013F000115CD8A0DAD7000E0001CF6F000E4D6E41
:1014000003D0000E0001EC6F10C0CEF01200700E81
:10141000D36EC00E9B6E20EC0CF071EC0CF0B0ECB7
:1014200009F0090E0001E16F1E0EE06FE40EE82ED8
:10143000FED7E02FFCD7E12FFAD70000C5EC0BF068
:10144000090E0001E16F1E0EE06FE40EE82EFED7DC
:10145000E02FFCD7E12FFAD70000929E899E050E5F
:101460000001E16F0F0EE06FF10EE82EFED7E02FC6
:10147000FCD7E12FFAD7898E050E0001E16F0F0E20
:10148000E06FF10EE82EFED7E02FFCD7E12FFAD760
:10149000899E5050D8B4FDD74BEC05F0000E506E2D
:1014A000F8D7340EF66E190EF76E000EF86E00EED9
:1014B000E2F010EE0BF00900F5CFEEFFE550E15041
:1014C000FAE1540EF66E190EF76E000EF86E090072
:1014D000F5CF51F00900F5CF52F00900F5CF53F0E8
:1014E00002EE66F011EE90F0EE6AE550E150FCE19C
:1014F000E250FAE102EE00F0660EEE6AE806FDE167
:1015000001EE00F0C80EEE6AE806FDE100EE60F0C4
:10151000700EEE6AE806FDE1506A4F6A4E6A4D6A47
:101520004C6A4B6A54905492000EF86E000107EF1B
:101530000AF0000E3B6E39AE06D0386C391ED8B0BA
:10154000392A010E3B6E37AE06D0366C371ED8B046
:10155000372A010E3B1A000E3D6E000E3C6E3850CD
:101560003910D8B41CD0010E3A6E04D0D890383659
:1015700039363A2A39AEFAD7D8903C363D3638500B
:10158000365C39503758D8A005D03850365E3950BF
:10159000375A3C80D890393238323A2EEDD73B500A
:1015A000D8B404D03C6C3D1ED8B03D2A3CC036F0C7
:1015B0003DC037F01200000E046E000E036E000EE8
:1015C000026E000E016E64C160F065C161F0020E32
:1015D00000016119D8B427D0000E066E000E056E0A
:1015E00014D0660E0524D96E010E0620DA6E055061
:1015F000640FE16EE26ADFCFE7FF020E0524036E9F
:10160000000E0620046E054A062A660E0524D96ED1
:10161000010E0620DA6EDF50D8A4E3D703C062F0D3
:1016200004C063F0120066C164F067C165F0120087
:10163000000E436E3FAE06D03E6C3F1ED8B03F2A30
:10164000010E436E41AE04D0406C411ED8B0412A19
:1016500040504110D8B418D0010E426E04D0D8903A
:1016600040364136422A41AEFAD740503E5C4150A6
:101670003F58D8A004D040503E5E41503F5AD890C9
:1016800041324032422EF1D74350D8B404D03E6CA0
:101690003F1ED8B03F2A3EC03EF03FC03FF0120090
:1016A000000E106E010E0F6E640E00016225D96EE1
:1016B000010E6321DA6EDF500E6E0E50CE19D8B4D3
:1016C00002D0000E1200000E106E10D01050640FE9
:1016D000D96EDA6A1050C60FE16EE26ADE50E61883
:1016E000D8B403D0000E0F6E05D0102ACE51105C76
:1016F000D8A0ECD760C000F161C001F10F5012001A
:10170000000E126E000E116E11C00CF012C00DF022
:10171000000E0F6E0A0E0E6EA4EC0BF00C500D10A6
:10172000D8B4897E660E1124D96E020E1220DA6EAC
:10173000DF5094EC0CF0114A122A900E115C010E4D
:101740001258D8B01200E0D70E500F10D8B418D0ED
:10175000010E106E04D0D8900E360F36102A0FAE40
:10176000FAD70E500C5C0F500D58D8A004D00E5074
:101770000C5E0F500D5AD8900F320E32102EF1D74A
:101780000CC00CF00DC00DF01200780E116E000EA2
:10179000106E000E136E000E126E660E1224D96EBD
:1017A000020E1320DA6E125010240D6E1350112009
:1017B0000E6E3CEC0CF0DF6E124A132A900E125C97
:1017C000010E1358D8B01200E8D70F6E290E0E6E16
:1017D000960E0D6E7F0EE82EFED70D2EFCD70E2E28
:1017E000FAD700000FC0A9FF0CC0A8FFA69EA69CB8
:1017F000A684F29E550EA76EAA0EA76EA682F28E42
:10180000A1A8FED7A1981200000E176E15AE06D043
:10181000146C151ED8B0152A010E176E14C00CF0EA
:1018200015C00DF00E6A8E0E0F6E17C010F059EC39
:1018300009F00CC014F00DC015F00EC016F0120027
:10184000949C948E0F013A9FF28EF28C9D8A200E0A
:10185000AC6E900EAB6E550E366ECE0E376E420EDF
:10186000386E36C027F037C028F038C029F095EC24
:1018700008F02750AF6E1200A5EC0CF0A00E65EC3E
:101880000CF00E5065EC0CF00D5065EC0CF0A5EC76
:101890000CF0A10E65EC0CF08EEC0CF00F6EA0ECD1
:1018A0000CF00F501200A5EC0CF0A00E65EC0CF043
:1018B000536E0E5065EC0CF00D5065EC0CF00F50B3
:1018C00065EC0CF0A0EC0CF012000C6E0CC0C9FF23
:1018D0009EA6FED79E96C5AC02D0010E1200000E49
:1018E0001200948894860F013A973A99800EC76E39
:1018F000280EC66E9F0EC86E120060C000F161C057
:1019000001F1000E0101026F000E036F12000C6E58
:101910000CC0A9FFA69EA680A8501200C5869EA650
:10192000FED79E96C95012000C6E9EA8FED70CC022
:0F193000ADFF12000001020304050607080901BC
:10194000C5849EA6FED79E961200C5809EA6FED791
:071950009E961200E803015E
:020000040030CA
:0E000000FF380F3CFFBF85FF0FC00FE00F4021
:00000001FF
