:040000007BEF00F0A2
:100008005082E1CF07F0E2CF08F0D9CF09F0DACF7C
:100018000AF09EAA62D0AECF0BF09D9A02016551FC
:10002800D8A419D03A0E0B18D8A405D04B50D8A490
:1000380002D0010E0CD0230E0B18D8A40AD04B0402
:10004800D8A407D0010E656F000E646F02D04B6E06
:1000580043D0000EFCD70A0E0B18D8A405D04A507E
:10006800D8A402D0010E19D00D0E0B18D8A417D0A1
:100078004A04D8A414D0640E6425D96EDA6A010E35
:10008800DA22DF6A642B2AEC0AF0000E0201646FA0
:10009800000E656F010E4C6E000E4A6E1DD0640E88
:1000A800646118D04A04D8A40BD0000E4A6E640EBE
:1000B8006425D96EDA6A010EDA220A0EDF6E642B25
:1000C800640E6425D96EDA6A010EDA220BC0DFFFEE
:1000D800642B02D0000E646F9D8A0AC0DAFF09C043
:1000E800D9FF08C0E2FF07C0E1FF50921100A0EF5E
:0200F80009F00D
:100600000000000E126E000E136E000E146E000E2F
:10061000156E000E1B6E000E1A6E000E1D6E000E83
:100620001C6E0A0ECFEC0BF0126E290E116E960E98
:10063000106E7F0EE82EFED7102EFCD7112EFAD7A3
:1006400000000B0ECFEC0BF0136E0C0ECFEC0BF08A
:10065000146E290E116E960E106E7F0EE82EFED7C8
:10066000102EFCD7112EFAD700000D0ECFEC0BF098
:10067000156E135012C010F0116A10C011F0106AFC
:100680001010476E1150486E155014C010F0116ACA
:1006900010C011F0106A10101C6E11501D6E47280A
:1006A00007E14828D8A404D0000E486E000E476E1B
:1006B0001C2807E11D28D8A404D0780E1D6E000E5A
:1006C0001C6E47C01AF048C01BF0640E0001622582
:1006D000D96E010E6321DA6EDF50106E1050166E67
:1006E000176AFF0E106E770E116E4750105E48505D
:1006F000115A1050165C11501758D8A006D0010E90
:100700000001CF6F070E496E120047C00DF048C0C0
:100710000EF0640E6225D96E010E6321DA6EDF5091
:100720000F6E9BEC0BF0474A482AD00E106ECA0E93
:10073000E82EFED7102EFCD7000E196E000E186E94
:1007400017D0185047240D6E195048200E6E1850BF
:10075000640FD96EDA6ADF500F6E9BEC0BF0D00E8F
:10076000106ECA0EE82EFED7102EFCD7184A192A92
:100770001650185C17501958D8A0E3D716504726C2
:1007800017504822290E116E960E106E7F0EE82E1D
:10079000FED7102EFCD7112EFAD7000048C00CF05F
:1007A0000A0E17EC0BF0290E116E960E106E7F0ECE
:1007B000E82EFED7102EFCD7112EFAD7000047C026
:1007C0000CF00B0E17EC0BF0290E116E960E106E3E
:1007D0007F0EE82EFED7102EFCD7112EFAD7000080
:1007E0001C287F0E1D58D8B08AD71CC00DF01DC024
:1007F0000EF01BC00FF09BEC0BF0D00E106ECA0E6B
:10080000E82EFED7102EFCD7010E1C240D6E000E14
:100810001D200E6E1AC00FF09BEC0BF0020E1C2672
:10082000000E1D22290E116E960E106E7F0EE82E00
:10083000FED7102EFCD7112EFAD700001DC00CF0E9
:100840000C0E17EC0BF0290E116E960E106E7F0E2B
:10085000E82EFED7102EFCD7112EFAD700001CC0B0
:100860000CF00D0E17EC0BF0290E116E960E106E9B
:100870007F0EE82EFED7102EFCD7112EFAD70000DF
:1008800060C000F161C001F11BC002F11AC003F1A8
:10089000010104691200000E0001D86F000EDA6F2A
:1008A000000ED96F780ED16F000ED06F000EDD6F85
:1008B000000EDE6F000EDF6F000EDC6F000EDB6FD0
:1008C000DBC00DF0DCC00EF06EEC0BF00001D86F59
:1008D000D829D8A406D0010ED925D96F000EDA2167
:1008E000DA6FDB4BDC2B780EDC5DD8A0E9D7D0C00B
:1008F00014F0D1C015F036EC0BF014C01BF015C08D
:100900001CF016C01DF0D9C014F0DAC015F036EC9A
:100910000BF014C018F015C019F016C01AF06CECEA
:1009200007F018C027F019C028F01AC029F0000EEF
:100930002A6EC80E2B6E420E2C6EF2EC06F027C00B
:10094000DDF028C0DEF029C0DFF0C80E0001DE199E
:1009500005E1420EDF19DD11D8B414D0DDC027F057
:10096000DEC028F0DFC029F0000E2A6E200E2B6EAC
:10097000410E2C6EF2EC06F027C0DDF028C0DEF050
:1009800029C0DFF0000E1B6EC80E1C6E420E1D6EDD
:10099000DDC018F0DEC019F0DFC01AF06CEC07F013
:1009A00018C027F019C028F01AC029F0DFEC07F0B2
:1009B00027C0D2F028C0D3F0000E396E0A0E386E70
:1009C000DDC027F0DEC028F0DFC029F0DFEC07F043
:1009D00027C036F028C037F0E8EC09F036C03EF00A
:1009E00037C03FF0000E416E0A0E406E67EC0AF011
:1009F0003EC0D4F03FC0D5F0DDC027F0DEC028F007
:100A0000DFC029F0DFEC07F027C03EF028C03FF040
:100A1000000E416E0A0E406E67EC0AF03EC0D6F042
:100A20003FC0D7F060C000F161C001F10001D251B8
:100A3000E00FD96EDA6ADF500101026F0001D45174
:100A4000E00FD96EDA6ADF500101036F0001D65161
:100A5000E00FD96EDA6ADF500101046F1200000E58
:100A6000196E000E136E000E186E020E126E000E3E
:100A7000156E000E146E000E196E0BD01950640F17
:100A8000D96EDA6A1950160FE16EE26ADFCFE7FF1E
:100A9000192A1250195CD8A0F1D71650DCEC0BF0D3
:100AA0001750DCEC0BF0175016C010F0116A10C094
:100AB00011F0106A1010146E1150156E050E116EA3
:100AC0000F0E106EF10EE82EFED7102EFCD7112E51
:100AD000FAD7000014C00DF015C00EF06EEC0BF04C
:100AE000106E10501A6E1B6A050E116E0F0E106EEE
:100AF000F10EE82EFED7102EFCD7112EFAD70000EB
:100B00001B50DCEC0BF01A50DCEC0BF0144A152AED
:100B10001A281B10D8A404D0FF0EDCEC0BF0120036
:100B200060C000F161C001F1020E1826000E1D6EBA
:100B3000000E1C6E2DD0000E106E010E116E18509E
:100B40001026000E11221C501024D96E1D501120A9
:100B5000DA6E1C5014240D6E1D5015200E6E6EECB6
:100B60000BF0DF6E000E106E010E116E1850102685
:100B7000000E11221C501024D96E1D501120DA6E67
:100B8000DF50DCEC0BF018501C24136E1C4A1D2A9D
:100B90001A501C5C1B501D58D8A0CDD7010E132431
:100BA000D96EDA6A010EDA22DF6A12000E6E3A0E90
:100BB000DCEC0BF0D00E0D6ECA0EE82EFED70D2E1B
:100BC000FCD7230EDCEC0BF0D00E0D6ECA0EE82E17
:100BD000FED70D2EFCD70E50D8A41DD0000E106EDF
:100BE000000E0F6E000E0F24D96E010E1020DA6E6B
:100BF000DF50DCEC0BF0D00E0D6ECA0EE82EFED7E7
:100C00000D2EFCD70F4A102A105028E1640E0F5CFD
:100C1000D8B024D0E7D7210EDCEC0BF0D00E0D6E4F
:100C2000CA0EE82EFED70D2EFCD7FE0EDCEC0BF024
:100C3000D00E0D6ECA0EE82EFED70D2EFCD74950F1
:100C4000DCEC0BF0D00E0D6ECA0EE82EFED70D2E8A
:100C5000FCD7000E0001CF6F000E496E0A0EDCECCF
:100C60000BF0D00E0D6ECA0EE82EFED70D2EFCD75F
:100C70000D0EDCEC0BF0000E106E640E0F6E0DD03E
:100C80000F50C808D96E1050D8A0E82A0108DA6EB3
:100C9000FF0EDF6E0F06D8A010060F501010D8A45C
:100CA000EFD7000E106E000E0F6E0AD0000E0F244C
:100CB000D96E010E1020DA6EFF0EDF6E0F4A102A79
:100CC000105005E1640E0F5CD8B01200EFD712008F
:100CD000000E166E000E126E000E136E000E156ED4
:100CE000640E00016225D96E010E6321DA6EDF50B9
:100CF000146E080E146405D0010ECF6F050E496EF8
:100D00001200520E116E2B0E106E000EE82EFED742
:100D1000102EFCD7112EFAD700D014C00CF0000E04
:100D200017EC0BF0520E116E2B0E106E000EE82E0B
:100D3000FED7102EFCD7112EFAD700D0152A000EA0
:100D4000166E26D0290E116E960E106E7F0EE82EAE
:100D5000FED7102EFCD7112EFAD700001650640FC4
:100D6000D96EDA6ADF500C6E1550162417EC0BF0B2
:100D7000290E116E960E106E7F0EE82EFED7102EE5
:100D8000FCD7112EFAD7000015501624126E162A21
:100D90001450165CD8A0D6D7090E116E1E0E106E18
:100DA000E40EE82EFED7102EFCD7112EFAD700D075
:100DB0001250CFEC0BF0136E090E116E1E0E106E5A
:100DC000E40EE82EFED7102EFCD7112EFAD700D055
:100DD000000E0001CF6F60C000F161C001F113C0CF
:100DE00002F1120029C02DF02E6A2F6A28342D3608
:100DF00001E32E802D50306E3050D8A407D0000E65
:100E0000276E000E286E000E296E12002CC02DF0E9
:100E10002E6A2F6A2B342D3601E32E802D50356E2D
:100E20003550D8A407D0000E276E000E286E000E95
:100E3000296E120035507B0F302629C035F02C501A
:100E4000351A800E3516288E2B8EFF0E2A16FF0EB1
:100E50002B16000E2C16000E316E000E326E000E98
:100E6000336E070E346E27A006D02A5031262B5041
:100E700032222C503322D890293228322732D8906F
:100E80002A362B362C36342EEED7090E346E27A098
:100E900006D02A5031262B5032222C503322D890A3
:100EA000293228322732D890333232323132342E3E
:100EB000EED731C00CF032C00DF033C00EF030C0B0
:100EC0000FF035C010F09FEC08F00CC027F00DC0FB
:100ED00028F00EC029F012001AC01EF01F6A206A06
:100EE00019341E3601E31F801E50256E2550D8A4EC
:100EF00007D0000E186E000E196E000E1A6E12004A
:100F00001DC01EF01F6A206A1C341E3601E31F80BC
:100F10001E50266E2650D8A407D0000E186E000E64
:100F2000196E000E1A6E1200000E226E000E236E55
:100F3000000E246E2650890F255E1AC026F01D5023
:100F4000261A800E2616198EFF0E1816FF0E191679
:100F5000000E1A161C8EFF0E1B16FF0E1C16000E1E
:100F60001D16180E216ED8902236233624361B50BB
:100F7000185C1C5019581D501A58D8A007D01B5087
:100F8000185E1C50195A1D501A5A2280D8901836D3
:100F900019361A36212EE7D722C00CF023C00DF0E7
:100FA00024C00EF025C00FF026C010F09FEC08F012
:100FB0000CC018F00DC019F00EC01AF0120029C0B4
:100FC0002BF02C6A2D6A28342B3601E32C802B5011
:100FD000356E3550D8A409D0000E276E000E286E4D
:100FE000000E296E000E2A6E1200170E2B6E27C0FF
:100FF0002CF028C02DF029C02EF02B282F6E04D005
:10100000D8902E322D322C322F2EFAD72C50306E13
:10101000288EFF0E2716FF0E2816000E29162750C1
:10102000316E2850326E2950336E346A8E0E355E22
:1010300035AE0DD03550800A8F0FD8A0CDD7D890BF
:101040003432333232323132353EF9D70DD0170EC9
:10105000356407D0C1D7D89031363236333634367E
:1010600035063550D8A4F7D73050D8B408D0341E40
:10107000331E321E316C000E32223322342231C034
:1010800027F032C028F033C029F034C02AF0120013
:1010900061C044F00001EA51D8A404D0010ECF6F22
:1010A000030E496E210E6019D8A440D0CF51D8B498
:1010B00023D0120E4418D8B41FD03CD0C5EC0BF08E
:1010C00039D001EC03F036D02FEC05F033D04BECE7
:1010D00004F030D085EC0BF02DD04DEC09F02AD087
:1010E00068EC06F027D0CBEC0AF00009D8A422D097
:1010F000010ECF6F040E1DD04450010AD8B4E1D7C1
:10110000030AD8B4E1D7010AD8B4E4D7070AD8B49F
:10111000DED7140AD8B4E1D7010AD8B4CFD7030A6E
:10112000D8B4DED7010AD8B4DED704D0010ECF6F11
:10113000060E496E0001CF51D6EC05F012000F509B
:10114000D8B405D00C500D100E10D8A40CD0000E41
:101150000C6E000E0D6E000E0E6E12000F2AD8904F
:101160000E320D320C32000E0C14116E000E0D14E6
:10117000126EFE0E0E14136E115012101310D8B40E
:101180000CD0ECD70F2A010E0C26000E0D22000EFB
:101190000E22D8900E320D320C32000E0C14116E4D
:1011A000000E0D14126EFF0E0E14136E115012105D
:1011B0001310D8B406D0E6D70F06D8900C360D36EB
:1011C0000E360DBE03D0020E0F60F6D70FA00D9E97
:1011D000D8900F320F500E121050D8A40E8E0CC0A3
:1011E0000CF00DC00DF00EC00EF01200000E0F6ED0
:1011F000290E0E6E960E0D6E7F0EE82EFED70D2E6A
:10120000FCD70E2EFAD70000000ECFEC0BF0106EBC
:10121000290E0E6E960E0D6E7F0EE82EFED70D2E49
:10122000FCD70E2EFAD700000F2A1028D8B42FD0E2
:10123000000E116E22D0290E0E6E960E0D6E7F0ED0
:10124000E82EFED70D2EFCD70E2EFAD70000115037
:10125000C60FD96EDA6A0F501124CFEC0BF0DF6E97
:10126000290E0E6E960E0D6E7F0EE82EFED70D2EF9
:10127000FCD70E2EFAD70000112A1050115CD8A00E
:10128000DAD7000E0001CF6F000E496E03D0000EBA
:101290000001EA6F10C0CEF012001268000E146E4A
:1012A000000E136E1450DCEC0BF01350DCEC0BF062
:1012B000D00E106ECA0EE82EFED7102EFCD713C02B
:1012C0000DF014C00EF012C00FF09BEC0BF0134A9F
:1012D000142A800E145CD8A0E5D7290E116E960E44
:1012E000106E7F0EE82EFED7102EFCD7112EFAD7E7
:1012F0000000FF0E0C6E0A0E17EC0BF0290E116E9B
:10130000960E106E7F0EE82EFED7102EFCD7112EF3
:10131000FAD70000FF0E0C6E0B0E17EC0BF0290E27
:10132000116E960E106E7F0EE82EFED7102EFCD793
:10133000112EFAD7000060C000F161C001F1120067
:10134000C40EF66E170EF76E000EF86E00EEE0F0AB
:1013500010EE0BF00900F5CFEEFFE550E150FAE199
:10136000E40EF66E170EF76E000EF86E0900F5CF5C
:101370004DF00900F5CF4EF00900F5CF4FF002EE29
:1013800066F011EE90F0EE6AE550E150FCE1E250BB
:10139000FAE102EE00F0660EEE6AE806FDE101EE0B
:1013A00000F0C80EEE6AE806FDE100EE60F0700E97
:1013B000EE6AE806FDE14C6A4B6A4A6A496A486A85
:1013C000476A50905092000EF86E00019FEF0AF0AD
:1013D000000E3B6E39AE06D0386C391ED8B0392AB3
:1013E000010E3B6E37AE06D0366C371ED8B0372AAA
:1013F000010E3B1A000E3D6E000E3C6E3850391047
:10140000D8B41CD0010E3A6E04D0D8903836393694
:101410003A2A39AEFAD7D8903C363D363850365C49
:1014200039503758D8A005D03850365E3950375A21
:101430003C80D890393238323A2EEDD73B50D8B470
:1014400004D03C6C3D1ED8B03D2A3CC036F03DC0B7
:1014500037F01200000E046E000E036E000E026ED6
:10146000000E016E64C160F065C161F0020E000102
:101470006119D8B427D0000E066E000E056E14D088
:10148000660E0524D96E010E0620DA6E0550640F33
:10149000E16EE26ADFCFE7FF020E0524036E000E65
:1014A0000620046E054A062A660E0524D96E010E32
:1014B0000620DA6EDF50D8A4E3D703C062F004C080
:1014C00063F0120066C164F067C165F01200000E9F
:1014D000436E3FAE06D03E6C3F1ED8B03F2A010E91
:1014E000436E41AE04D0406C411ED8B0412A4050FA
:1014F0004110D8B418D0010E426E04D0D8904036B6
:101500004136422A41AEFAD740503E5C41503F58E6
:10151000D8A004D040503E5E41503F5AD89041324E
:101520004032422EF1D74350D8B404D03E6C3F1E17
:10153000D8B03F2A3EC03EF03FC03FF01200700ED0
:10154000D36EC00E9B6E52EC0BF0B9EC0BF0F6ECC8
:1015500008F0090E466E1E0E456EE40EE82EFED70C
:10156000452EFCD7462EFAD700D0F7EC0AF0090E2C
:10157000466E1E0E456EE40EE82EFED7452EFCD7B5
:10158000462EFAD700D04C50D8B4FDD748EC08F01E
:10159000000E4C6EF8D7000E106E010E0F6E640E2A
:1015A00000016225D96E010E6321DA6EDF500E6EE6
:1015B0000E50CE19D8B402D0000E1200000E106EDC
:1015C00010D01050640FD96EDA6A1050C60FE16E59
:1015D000E26ADE50E618D8B403D0000E0F6E05D0D4
:1015E000102ACE51105CD8A0ECD70F501200780E04
:1015F000116E000E106E000E136E000E126E660E4F
:101600001224D96E020E1320DA6E125010240D6EC1
:10161000135011200E6E6EEC0BF0DF6E124A132A7F
:10162000900E125C010E1358D8B01200E8D70F6E5E
:10163000290E0E6E960E0D6E7F0EE82EFED70D2E25
:10164000FCD70E2EFAD700000FC0A9FF0CC0A8FFD0
:10165000A69EA69CA684F29E550EA76EAA0EA76E05
:10166000A682F28EA1A8FED7A1981200000E176ED6
:1016700015AE06D0146C151ED8B0152A010E176EC3
:1016800014C00CF015C00DF00E6A8E0E0F6E17C050
:1016900010F09FEC08F00CC014F00DC015F00EC057
:1016A00016F01200949C948E0F013A9FF28EF28CE9
:1016B0009D8A200EAC6E900EAB6E550E366ECE0E21
:1016C000376E420E386E36C027F037C028F038C06B
:1016D00029F0DFEC07F02750AF6E1200EDEC0BF0B5
:1016E000A00EADEC0BF00E50ADEC0BF00D50ADECD0
:1016F0000BF0EDEC0BF0A10EADEC0BF0D6EC0BF01B
:101700000F6EE8EC0BF00F501200000E0E6E000E84
:101710000D6E660E0D24D96E020E0E20DA6EDF50AD
:10172000DCEC0BF00D4A0E2A900E0D5C010E0E58EB
:10173000D8B01200EED7EDEC0BF0A00EADEC0BF034
:101740004F6E0E50ADEC0BF00D50ADEC0BF00F509A
:10175000ADEC0BF0E8EC0BF012000C6E0CC0C9FF06
:101760009EA6FED79E96C5AC02D0010E1200000EBA
:101770001200948894860F013A973A99800EC76EAA
:10178000280EC66E9F0EC86E120060C000F161C0C8
:1017900001F1000E0101026F000E036F12000C6ECA
:1017A0000CC0A9FFA69EA680A8501200C5869EA6C2
:1017B000FED79E96C95012000C6E9EA8FED70CC094
:0F17C000ADFF120000010203040506070809012E
:1017D000C5849EA6FED79E961200C5809EA6FED703
:0717E0009E961200E80301D0
:020000040030CA
:0E000000FF380F3CFFBF85FF0FC00FE00F4021
:00000001FF
