:0400000072EF00F0AB
:100008004882E1CF07F0E2CF08F0D9CF09F0DACF84
:100018000AF09EAA59D0AECF0BF09D9A00019351D9
:10002800D8A417D03A0E0B18D8A405D03950D8A4A4
:1000380002D0010E391A230E0B18D8A444D0390463
:10004800D8A441D0010E936F000E926F010E391A99
:100058003AD00D0E0B18D8A405D03850D8A402D029
:10006800010E16D00A0E0B18D8A414D03804D8A440
:1000780011D09251C80FD96EDA6ADF6A922B52EC0E
:1000880005F0000E926F000E936F010E3A6E000E8F
:10009800386E19D0320E926114D03804D8A409D021
:1000A800000E386E9251C80FD96EDA6A0D0EDF6EE7
:1000B800922B9251C80FD96EDA6A0BC0DFFF922BD0
:1000C80002D0000E926F9D8A0AC0DAFF09C0D9FFDC
:1000D80008C0E2FF07C0E1FF48921100A8EF05F051
:100600000000000E126E000E136E000E176E000E2C
:10061000166E0A0E39EC06F0126E290E116E960E49
:10062000106E7F0EE82EFED7102EFCD7112EFAD7B3
:1006300000000B0E39EC06F0136E135012C010F0D0
:10064000116A10C011F0106A1010366E1150376E1A
:10065000362807E13728D8A404D0000E376E000EE4
:10066000366E36C016F037C017F000019651C80F2D
:10067000D96EDA6ADF50106E1050146E156A36C0EB
:100680000DF037C00EF09651C80FD96EDA6ADF5000
:100690000F6E06EC06F0364A372AD00E106ECA0EE0
:1006A000E82EFED7102EFCD7000E196E000E186E25
:1006B00017D0185036240D6E195037200E6E185072
:1006C000980FD96EDA6ADF500F6E06EC06F0D00E86
:1006D000106ECA0EE82EFED7102EFCD7184A192A23
:1006E0001450185C15501958D8A0E3D7145036266A
:1006F00015503722520E116E2B0E106E000EE82E82
:10070000FED7102EFCD7112EFAD700D037C00CF030
:100710000A0ECBEC05F0520E116E2B0E106E000E71
:10072000E82EFED7102EFCD7112EFAD700D036C0F7
:100730000CF00B0ECBEC05F0520E116E2B0E106E62
:10074000000EE82EFED7102EFCD7112EFAD700D0BF
:1007500094C023F095C024F017C025F016C026F0F1
:100760004750D8A402D0010E01D0000E276E12000F
:10077000000E166E000E126E000E136E000E156E39
:1007800000019651C80FD96EDA6ADF50146E080E58
:10079000146404D0FF0E47EC06F01200520E116EE6
:1007A0002B0E106E000EE82EFED7102EFCD7112E49
:1007B000FAD700D014C00CF0000ECBEC05F0520EAE
:1007C000116E2B0E106E000EE82EFED7102EFCD7E9
:1007D000112EFAD700D0152A000E166E26D0290E3B
:1007E000116E960E106E7F0EE82EFED7102EFCD7DF
:1007F000112EFAD700001650980FD96EDA6ADF5022
:100800000C6E15501624CBEC05F0290E116E960EC9
:10081000106E7F0EE82EFED7102EFCD7112EFAD7C1
:10082000000015501624126E162A1450165CD8A01B
:10083000D6D7090E116E1E0E106EE40EE82EFED7EE
:10084000102EFCD7112EFAD700D0125039EC06F03A
:10085000136E090E116E1E0E106EE40EE82EFED7FA
:10086000102EFCD7112EFAD700D094C023F095C0DB
:1008700024F013C025F0000E266E000E276E120025
:100880000EC010F0116A126A0D34103601E31180A7
:1008900010501A6E1A50D8A409D0000E0C6E000E1B
:1008A0000D6E000E0E6E000E0F6E1200170E106E03
:1008B0000CC011F00DC012F00EC013F01028146E11
:1008C00004D0D890133212321132142EFAD71150AC
:1008D000156E0D8EFF0E0C16FF0E0D16000E0E1669
:1008E0000C50166E0D50176E0E50186E196A8E0E43
:1008F0001A5E1AAE0DD01A50800A8F0FD8A0CDD72D
:10090000D89019321832173216321A3EF9D70DD054
:10091000170E1A6407D0C1D7D89016361736183676
:1009200019361A061A50D8A4F7D71550D8B408D0DB
:10093000191E181E171E166C000E172218221922D7
:1009400016C00CF017C00DF018C00EF019C00FF053
:100950001200700ED36EC00E9B6EEAEC05F024EC14
:1009600006F0000E216E290E1F6E960E1E6E7F0E73
:10097000E82EFED71E2EFCD71F2EFAD70000000E41
:1009800039EC06F0206E290E1F6E960E1E6E7F0E3D
:10099000E82EFED71E2EFCD71F2EFAD70000212AE4
:1009A0002028D8B429D0000E226E22D0290E1F6E26
:1009B000960E1E6E7F0EE82EFED71E2EFCD71F2E23
:1009C000FAD7000022502D0FD96EDA6A2150222466
:1009D00039EC06F0DF6E290E1F6E960E1E6E7F0E2E
:1009E000E82EFED71E2EFCD71F2EFAD70000222A93
:1009F0002050225CD8A0DAD73A50D8B4FDD781EC89
:100A000005F0000E3A6EF8D73A0E47EC06F0D00E1D
:100A10000D6ECA0EE82EFED70D2EFCD7230E47EC26
:100A200006F0D00E0D6ECA0EE82EFED70D2EFCD7A6
:100A3000000E0F6E000E0E6E0E50230FD96EDA6A86
:100A4000DF5047EC06F0D00E0D6ECA0EE82EFED732
:100A50000D2EFCD70E4A0F2A0F5004E10A0E0E5C31
:100A6000D8A0EAD70D0E47EC06F0D00E0D6ECA0ED8
:100A7000E82EFED70D2EFCD70A0E47EC06F0000E2E
:100A80000F6E320E0E6E09D00E50FA08D96EDA6A69
:100A9000FF0EDF6E0E06D8A00F060E500F10D8B452
:100AA0001200F2D7000E046E000E036E000E026EEE
:100AB000000E016EC8C094F0C9C095F0000E066E1D
:100AC000000E056E12D00550CA0FD96EDA6A0550B5
:100AD000980FE16EE26ADFCFE7FF020E0524036E96
:100AE000000E0620046E054A062A0550CA0FD96E6C
:100AF000DA6ADF50D8A4E7D703C096F004C097F0B5
:100B0000120095C01AF0210E00019419D8A4120009
:100B100009D030EC06F019D001EC03F016D0B8EC97
:100B200003F013D01A50010AD8B4F6D7030AD8B488
:100B30000CD0010AD8B409D0070AD8B406D0150AD7
:100B4000D8B4E7D7E00AD8B4EAD704EC05F012002D
:100B5000800EF66E0C0EF76E000EF86E00EE3BF097
:100B600010EE0DF00900F5CFEEFFE550E150FAE18F
:100B700000EE60F09A0EEE6AE806FDE100EE23F06A
:100B8000180EEE6AE806FDE148904892000EF86EF5
:100B90000001A9EF04F00F6E520E0E6E2B0E0D6EBB
:100BA000000EE82EFED70D2EFCD70E2EFAD700D061
:100BB0000FC0A9FF0CC0A8FFA69EA69CA684F29E0B
:100BC000550EA76EAA0EA76EA682F28EA1A8FED71A
:100BD000A1981200949C948E0F013A9FF28EF28C91
:100BE0009D8A200EAC6E900EAB6E550E1B6ECE0E17
:100BF0001C6E420E1D6E1BC00CF01CC00DF01DC003
:100C00000EF040EC04F00C50AF6E120052EC06F007
:100C1000A00E18EC06F0476E0E5018EC06F00D50C2
:100C200018EC06F00F5018EC06F04DEC06F0120030
:100C30000C6E0CC0C9FF9EA6FED79E96C5AC02D016
:100C4000010E1200000E1200948894860F013A974C
:100C50003A99800EC76E280EC66E9F0EC86E12009F
:100C600094C023F095C024F0000E256E000E266E71
:100C700012000C6E0CC0A9FFA69EA680A850120000
:0D0C800000010203040506070809E803014E
:100C8E000C6E9EA8FED70CC0ADFF1200C5849EA6AA
:100C9E00FED79E961200C5809EA6FED79E96120087
:020000040030CA
:0E000000FF380F3CFFBF85FF0FC00FE00F4021
:00000001FF
