:0400000075EF00F0A8
:100008003F82E1CF07F0E2CF08F0D9CF09F0DACF8D
:100018000AF09EAA5CD0AECF0BF09D9A0101335135
:10002800D8A419D03A0E0B18D8A405D02F50D8A4AC
:1000380002D0010E0CD0230E0B18D8A40AD02F041E
:10004800D8A407D0010E336F000E326F02D02F6E86
:100058003DD0000EFCD70D0E0B18D8A405D02E509D
:10006800D8A402D0010E17D00A0E0B18D8A415D0A8
:100078002E04D8A412D03251C60FD96EDA6ADF6ABC
:10008800322B4AEC07F0000E0101326F000E336F7D
:10009800010E306E000E2E6E19D0320E326114D061
:1000A8002E04D8A409D0000E2E6E3251C60FD96E78
:1000B800DA6A0D0EDF6E322B3251C60FD96EDA6A4C
:1000C8000BC0DFFF322B02D0000E326F9D8A0AC0B0
:1000D800DAFF09C0D9FF08C0E2FF07C0E1FF3F927D
:0600E8001100BBEF07F060
:100600000000000E126E000E136E000E146E000E2F
:10061000156E000E1B6E000E1A6E000E1D6E000E83
:100620001C6E0A0EDDEC08F0126E290E116E960E8D
:10063000106E7F0EE82EFED7102EFCD7112EFAD7A3
:1006400000000B0EDDEC08F0136E0C0EDDEC08F074
:10065000146E290E116E960E106E7F0EE82EFED7C8
:10066000102EFCD7112EFAD700000D0EDDEC08F08D
:10067000156E135012C010F0116A10C011F0106AFC
:1006800010102A6E11502B6E155014C010F0116A04
:1006900010C011F0106A10101C6E11501D6E2A2827
:1006A00007E12B28D8A404D0000E2B6E000E2A6E72
:1006B0001C2807E11D28D8A404D0780E1D6E000E5A
:1006C0001C6E2AC01AF02BC01BF000016251C60F2D
:1006D000D96EDA6ADF50106E1050166E176AFF0E70
:1006E000106E770E116E2A50105E2B50115A10505A
:1006F000165C11501758D8A005D0010E2D6E070EAC
:100700002C6E12002AC00DF02BC00EF06251C60FE5
:10071000D96EDA6ADF500F6EA2EC08F02A4A2B2A53
:10072000D00E106ECA0EE82EFED7102EFCD7000E8B
:10073000196E000E186E17D018502A240D6E19501D
:100740002B200E6E1850640FD96EDA6ADF500F6ED0
:10075000A2EC08F0D00E106ECA0EE82EFED7102EB6
:10076000FCD7184A192A1650185C17501958D8A0E7
:10077000E3D716502A2617502B22290E116E960EFB
:10078000106E7F0EE82EFED7102EFCD7112EFAD752
:1007900000002BC00CF00A0E3AEC08F0290E116E86
:1007A000960E106E7F0EE82EFED7102EFCD7112E5F
:1007B000FAD700002AC00CF00B0E3AEC08F0290E14
:1007C000116E960E106E7F0EE82EFED7102EFCD7FF
:1007D000112EFAD700001C287F0E1D58D8B08DD7D7
:1007E0001CC00DF01DC00EF01BC00FF0A2EC08F0F5
:1007F000D00E106ECA0EE82EFED7102EFCD7010EBA
:100800001C240D6E000E1D200E6E1AC00FF0A2ECFF
:1008100008F0020E1C26000E1D22290E116E960EE7
:10082000106E7F0EE82EFED7102EFCD7112EFAD7B1
:1008300000001DC00CF00C0E3AEC08F0290E116EF1
:10084000960E106E7F0EE82EFED7102EFCD7112EBE
:10085000FAD700001CC00CF00D0E3AEC08F0290E7F
:10086000116E960E106E7F0EE82EFED7102EFCD75E
:10087000112EFAD7000060C094F061C095F01BC043
:1008800096F01AC097F0000198691200000E196ED8
:10089000000E136E000E186E020E126E000E156E14
:1008A000000E146E000E196E0BD01950640FD96E25
:1008B000DA6A1950160FE16EE26ADFCFE7FF192AF4
:1008C0001250195CD8A0F1D71650EAEC08F0175076
:1008D000EAEC08F0175016C010F0116A10C011F0C1
:1008E000106A1010146E1150156E050E116E0F0E59
:1008F000106EF10EE82EFED7102EFCD7112EFAD76F
:10090000000014C00DF015C00EF075EC08F0106E6C
:1009100010501A6E1B6A050E116E0F0E106EF10E3E
:10092000E82EFED7102EFCD7112EFAD700001B5050
:10093000EAEC08F01A50EAEC08F0144A152A1A28D2
:100940001B10D8A404D0FF0EEAEC08F0120060C01F
:1009500094F061C095F0020E1826000E1D6E000E78
:100960001C6E1BD01850940F1C24D96EDA6A1C50D0
:1009700014240D6E1D5015200E6E75EC08F0DF6E00
:100980001850940F1C24D96EDA6ADF50EAEC08F094
:1009900018501C24136E1C4A1D2A1A501C5C1B5034
:1009A0001D58D8A0DFD71350950FD96EDA6ADF6AC9
:1009B00012000E6E3A0EEAEC08F0D00E0D6ECA0E62
:1009C000E82EFED70D2EFCD7230EEAEC08F0D00E51
:1009D0000D6ECA0EE82EFED70D2EFCD70E50D8A4F1
:1009E0001BD0000E106E000E0F6E0F50940FD96EBC
:1009F000DA6ADF50EAEC08F0D00E0D6ECA0EE82E6F
:100A0000FED70D2EFCD70F4A102A105027E1320EC8
:100A10000F5CD8B023D0E9D7210EEAEC08F0D00E55
:100A20000D6ECA0EE82EFED70D2EFCD7FE0EEAEC98
:100A300008F0D00E0D6ECA0EE82EFED70D2EFCD794
:100A40002C50EAEC08F0D00E0D6ECA0EE82EFED740
:100A50000D2EFCD7000E2D6E000E2C6E0D0EEAEC46
:100A600008F0D00E0D6ECA0EE82EFED70D2EFCD764
:100A70000A0EEAEC08F0000E106E320E0F6E09D06E
:100A80000F50F808D96EDA6AFF0EDF6E0F06D8A095
:100A900010060F501010D8A4F3D7000E106E000EE1
:100AA0000F6E08D00F50940FD96EDA6AFF0EDF6E0A
:100AB0000F4A102A105005E1320E0F5CD8B0120018
:100AC000F1D71200000E166E000E126E000E136E9D
:100AD000000E156E00016251C60FD96EDA6ADF5042
:100AE000146E080E146405D0010E2D6E050E2C6ECA
:100AF0001200520E116E2B0E106E000EE82EFED755
:100B0000102EFCD7112EFAD700D014C00CF0000E16
:100B10003AEC08F0520E116E2B0E106E000EE82EFD
:100B2000FED7102EFCD7112EFAD700D0152A000EB2
:100B3000166E26D0290E116E960E106E7F0EE82EC0
:100B4000FED7102EFCD7112EFAD700001650640FD6
:100B5000D96EDA6ADF500C6E155016243AEC08F0A4
:100B6000290E116E960E106E7F0EE82EFED7102EF7
:100B7000FCD7112EFAD7000015501624126E162A33
:100B80001450165CD8A0D6D7090E116E1E0E106E2A
:100B9000E40EE82EFED7102EFCD7112EFAD700D087
:100BA0001250DDEC08F0136E090E116E1E0E106E61
:100BB000E40EE82EFED7102EFCD7112EFAD700D067
:100BC000000E2D6E60C094F061C095F013C096F0D9
:100BD00012000EC010F0116A126A0D34103601E3D3
:100BE000118010501A6E1A50D8A409D0000E0C6E45
:100BF000000E0D6E000E0E6E000E0F6E1200170E20
:100C0000106E0CC011F00DC012F00EC013F01028C1
:100C1000146E04D0D890133212321132142EFAD737
:100C20001150156E0D8EFF0E0C16FF0E0D16000ED8
:100C30000E160C50166E0D50176E0E50186E196A67
:100C40008E0E1A5E1AAE0DD01A50800A8F0FD8A0E1
:100C5000CDD7D89019321832173216321A3EF9D73A
:100C60000DD0170E1A6407D0C1D7D8901636173694
:100C7000183619361A061A50D8A4F7D71550D8B412
:100C800008D0191E181E171E166C000E17221822E7
:100C9000192216C00CF017C00DF018C00EF019C0C4
:100CA0000FF01200000E0F6E290E0E6E960E0D6ED6
:100CB0007F0EE82EFED70D2EFCD70E2EFAD70000A1
:100CC000000EDDEC08F0106E290E0E6E960E0D6E05
:100CD0007F0EE82EFED70D2EFCD70E2EFAD7000081
:100CE0000F2A1028D8B42ED0000E116E22D0290E53
:100CF0000E6E960E0D6E7F0EE82EFED70D2EFCD7D3
:100D00000E2EFAD700001150210FD96EDA6A0F505B
:100D10001124DDEC08F0DF6E290E0E6E960E0D6EBE
:100D20007F0EE82EFED70D2EFCD70E2EFAD7000030
:100D3000112A1050115CD8A0DAD7000E2D6E000ECB
:100D40002C6E02D0000E3D6E10C029F01200126809
:100D5000000E146E000E136E1450EAEC08F01350DF
:100D6000EAEC08F0D00E106ECA0EE82EFED7102E58
:100D7000FCD713C00DF014C00EF012C00FF0A2EC9F
:100D800008F0134A142A800E145CD8A0E5D7290E67
:100D9000116E960E106E7F0EE82EFED7102EFCD729
:100DA000112EFAD70000FF0E0C6E0A0E3AEC08F076
:100DB000290E116E960E106E7F0EE82EFED7102EA5
:100DC000FCD7112EFAD70000FF0E0C6E0B0E3AEC7A
:100DD00008F0290E116E960E106E7F0EE82EFED7CB
:100DE000102EFCD7112EFAD7000060C094F061C01D
:100DF00095F0120061C01EF03D50D8A404D0010E41
:100E00002D6E030E2C6E210E00016019D8A43AD06D
:100E10002D50D8B420D0120E1E18D8B41CD036D005
:100E2000CCEC08F033D001EC03F030D046EC04F009
:100E30002DD08CEC08F02AD0A7EC06F027D062EC7D
:100E400005F024D083EC07F00009D8A41FD0010ED0
:100E50002D6E040E1AD01E50010AD8B4E4D7030A2E
:100E6000D8B4E4D7010AD8B4E4D7130AD8B4E4D785
:100E7000010AD8B4D5D7030AD8B4E1D7010AD8B447
:100E8000E1D704D0010E2D6E060E2C6E2D50D9EC3C
:100E900004F01200000E046E000E036E000E026ECF
:100EA000000E016EC6C060F0C7C061F0020E000106
:100EB0006119D8B423D0000E066E000E056E12D054
:100EC0000550C80FD96EDA6A0550640FE16EE26A08
:100ED000DFCFE7FF020E0524036E000E0620046E2E
:100EE000054A062A0550C80FD96EDA6ADF50D8A421
:100EF000E7D703C062F004C063F01200C8C064F01A
:100F0000C9C065F01200000E116E010E106E0001D6
:100F10006251C60FD96EDA6ADF500F6E0F50291872
:100F2000D8B402D0000E1200000E116E1ED0115067
:100F3000210FD96EDA6ADF50EAEC08F01150640F25
:100F4000D96EDA6ADF50EAEC08F01150640FD96EFE
:100F5000DA6A1150210FE16EE26ADE50E618D8B469
:100F600003D0000E106E05D0112A2950115CD8A0B4
:100F7000DED710501200AC0EF66E110EF76E000E9A
:100F8000F86E00EE31F010EE0EF00900F5CFEEFF36
:100F9000E550E150FAE101EE34F011EE90F0EE6A26
:100FA000E550E150FCE1E250FAE101EE00F0340ED0
:100FB000EE6AE806FDE100EE60F0980EEE6AE806E3
:100FC000FDE100EE21F0100EEE6AE806FDE13F9033
:100FD0003F92000EF86E0001EEEF07F0700ED36E38
:100FE000C00E9B6E59EC08F0C0EC08F052EC06F015
:100FF000090E206E1E0E1F6EE40EE82EFED71F2E69
:10100000FCD7202EFAD700D01AEC08F0090E206E7B
:101010001E0E1F6EE40EE82EFED71F2EFCD7202ECC
:10102000FAD700D03050D8B4FDD7FAEC06F0000E55
:10103000306EF8D7780E116E000E106E000E136E23
:10104000000E126E340E1224D96E010E1320DA6EC9
:10105000125010240D6E135011200E6E75EC08F016
:10106000DF6E124A132A900E125C010E1358D8B08C
:101070001200E8D70F6E290E0E6E960E0D6E7F0EC3
:10108000E82EFED70D2EFCD70E2EFAD700000FC08B
:10109000A9FF0CC0A8FFA69EA69CA684F29E550E92
:1010A000A76EAA0EA76EA682F28EA1A8FED7A1985F
:1010B0001200949C948E0F013A9FF28EF28C9D8ABE
:1010C000200EAC6E900EAB6E550E1B6ECE0E1C6ECF
:1010D000420E1D6E1BC00CF01CC00DF01DC00EF0AA
:1010E000E9EC05F00C50AF6E1200F5EC08F0A00E24
:1010F000B4EC08F00E50B4EC08F00D50B4EC08F06D
:10110000F5EC08F0A10EB4EC08F0E4EC08F00F6E7A
:10111000F0EC08F00F501200000E0E6E000E0D6E77
:10112000340E0D24D96E010E0E20DA6EDF50EAEC7B
:1011300008F00D4A0E2A900E0D5C010E0E58D8B024
:101140001200EED7F5EC08F0A00EB4EC08F03E6EFD
:101150000E50B4EC08F00D50B4EC08F00F50B4ECA5
:1011600008F0F0EC08F012000C6E0CC0C9FF9EA64F
:10117000FED79E96C5AC02D0010E1200000E1200E2
:10118000948894860F013A973A99800EC76E280E7C
:10119000C66E9F0EC86E120060C094F061C095F0DC
:1011A000000E0001966F000E976F120000010203FF
:1011B000040506070809E80301010C6E0CC0A9FF2D
:1011C000A69EA680A8501200C5869EA6FED79E9613
:1011D000C95012000C6E9EA8FED70CC0ADFF1200C5
:1011E000C5849EA6FED79E961200C5809EA6FED7F9
:0411F0009E961200B5
:020000040030CA
:0E000000FF380F3CFFBF85FF0FC00FE00F4021
:00000001FF
