:0400000072EF00F0AB
:100008003A82E1CF07F0E2CF08F0D9CF09F0DACF92
:100018000AF09EAA59D0AECF0BF09D9A00019351D9
:10002800D8A417D03A0E0B18D8A405D02B50D8A4B2
:1000380002D0010E2B1A230E0B18D8A444D02B047F
:10004800D8A441D0010E936F000E926F010E2B1AA7
:100058003AD00D0E0B18D8A405D02A50D8A402D037
:10006800010E16D00A0E0B18D8A414D02A04D8A44E
:1000780011D09251C80FD96EDA6ADF6A922B6FECF1
:1000880004F0000E926F000E936F010E2C6E000E9E
:100098002A6E19D0320E926114D02A04D8A409D03D
:1000A800000E2A6E9251C80FD96EDA6A0D0EDF6EF5
:1000B800922B9251C80FD96EDA6A0BC0DFFF922BD0
:1000C80002D0000E926F9D8A0AC0DAFF09C0D9FFDC
:1000D80008C0E2FF07C0E1FF3A9211009EEF04F06A
:100600000000000E126E000E136E000E176E000E2C
:10061000166E0A0E60EC05F0126E290E116E960E23
:10062000106E7F0EE82EFED7102EFCD7112EFAD7B3
:1006300000000B0E60EC05F0136E135012C010F0AA
:10064000116A10C011F0106A1010286E1150296E36
:10065000282807E12928D8A404D0000E296E000E0E
:10066000286E28C016F029C017F000019651C80F57
:10067000D96EDA6ADF50106E1050146E156A28C0F9
:100680000DF029C00EF09651C80FD96EDA6ADF500E
:100690000F6E1DEC05F0284A292AD00E106ECA0EE6
:1006A000E82EFED7102EFCD7000E196E000E186E25
:1006B00017D0185028240D6E195029200E6E18508E
:1006C000980FD96EDA6ADF500F6E1DEC05F0D00E70
:1006D000106ECA0EE82EFED7102EFCD7184A192A23
:1006E0001450185C15501958D8A0E3D71450282678
:1006F00015502922520E116E2B0E106E000EE82E90
:10070000FED7102EFCD7112EFAD700D029C00CF03E
:100710000A0EE2EC04F0520E116E2B0E106E000E5B
:10072000E82EFED7102EFCD7112EFAD700D028C005
:100730000CF00B0EE2EC04F0520E116E2B0E106E4C
:10074000000EE82EFED7102EFCD7112EFAD700D0BF
:1007500094C01EF095C01FF017C020F016C021F005
:100760003950D8A402D0010E01D0000E226E120022
:100770000EC010F0116A126A0D34103601E31180B8
:1007800010501A6E1A50D8A409D0000E0C6E000E2C
:100790000D6E000E0E6E000E0F6E1200170E106E14
:1007A0000CC011F00DC012F00EC013F01028146E22
:1007B00004D0D890133212321132142EFAD71150BD
:1007C000156E0D8EFF0E0C16FF0E0D16000E0E167A
:1007D0000C50166E0D50176E0E50186E196A8E0E54
:1007E0001A5E1AAE0DD01A50800A8F0FD8A0CDD73E
:1007F000D89019321832173216321A3EF9D70DD066
:10080000170E1A6407D0C1D7D89016361736183687
:1008100019361A061A50D8A4F7D71550D8B408D0EC
:10082000191E181E171E166C000E172218221922E8
:1008300016C00CF017C00DF018C00EF019C00FF064
:1008400012003A0E6EEC05F0D00E0D6ECA0EE82EB8
:10085000FED70D2EFCD7230E6EEC05F0D00E0D6EDC
:10086000CA0EE82EFED70D2EFCD7000E0F6E000E1E
:100870000E6E0E501E0FD96EDA6ADF506EEC05F068
:10088000D00E0D6ECA0EE82EFED70D2EFCD70E4AE6
:100890000F2A0F5004E10A0E0E5CD8A0EAD70D0E05
:1008A0006EEC05F0D00E0D6ECA0EE82EFED70D2EA2
:1008B000FCD70A0E6EEC05F0000E0F6E320E0E6EB7
:1008C00009D00E50FA08D96EDA6AFF0EDF6E0E06F6
:1008D000D8A00F060E500F10D8B41200F2D7000E99
:1008E000046E000E036E000E026E000E016EC8C094
:1008F00094F0C9C095F0000E066E000E056E12D081
:100900000550CA0FD96EDA6A0550980FE16EE26A97
:10091000DFCFE7FF020E0524036E000E0620046EF3
:10092000054A062A0550CA0FD96EDA6ADF50D8A4E4
:10093000E7D703C096F004C097F01200CE0EF66E13
:100940000A0EF76E000EF86E00EE2DF010EE0DF0B0
:100950000900F5CFEEFFE550E150FAE100EE60F05E
:100960009A0EEE6AE806FDE100EE1EF00F0EEE6A4A
:10097000E806FDE13A903A92000EF86E00012FEF82
:1009800005F095C01AF0210E00019419D8A41200A8
:1009900006D057EC05F013D001EC03F010D01A503C
:1009A000010AD8B4F9D7030AD8B409D0010AD8B4D7
:1009B00006D0070AD8B403D0150AD8B4EAD721EC78
:1009C00004F012000F6E520E0E6E2B0E0D6E000E06
:1009D000E82EFED70D2EFCD70E2EFAD700D00FC072
:1009E000A9FF0CC0A8FFA69EA69CA684F29E550E49
:1009F000A76EAA0EA76EA682F28EA1A8FED7A19816
:100A00001200949C948E0F013A9FF28EF28C9D8A74
:100A1000200EAC6E900EAB6E550E1B6ECE0E1C6E85
:100A2000420E1D6E1BC00CF01CC00DF01DC00EF060
:100A3000B8EC03F00C50AF6E120079EC05F0A00E8C
:100A40003FEC05F0396E0E503FEC05F00D503FECD9
:100A500005F00F503FEC05F074EC05F01200700E3D
:100A6000D36EC00E9B6E01EC05F04BEC05F02C50E4
:100A7000D8B4FDD7C1EC04F0000E2C6EF8D70C6E84
:100A80000CC0C9FF9EA6FED79E96C5AC02D0010E33
:100A90001200000E1200948894860F013A973A993A
:100AA000800EC76E280EC66E9F0EC86E120094C0D0
:100AB0001EF095C01FF0000E206E000E216E120079
:100AC0000C6E0CC0A9FFA69EA680A85012000001C3
:0B0AD0000203040506070809E8030103
:100ADC000C6E9EA8FED70CC0ADFF1200C5849EA65E
:100AEC00FED79E961200C5809EA6FED79E9612003B
:020000040030CA
:0E000000FF380F3CFFBF85FF0FC00FE00F4021
:00000001FF
