:0400000072EF00F0AB
:100008004482E1CF07F0E2CF08F0D9CF09F0DACF88
:100018000AF09EAA59D0AECF0BF09D9A00019351D9
:10002800D8A417D03A0E0B18D8A405D03450D8A4A9
:1000380002D0010E341A230E0B18D8A444D034046D
:10004800D8A441D0010E936F000E926F010E341A9E
:100058003AD00D0E0B18D8A405D03350D8A402D02E
:10006800010E16D00A0E0B18D8A414D03304D8A445
:1000780011D09251C80FD96EDA6ADF6A922B48EC18
:1000880005F0000E926F000E936F010E356E000E94
:10009800336E19D0320E926114D03304D8A409D02B
:1000A800000E336E9251C80FD96EDA6A0D0EDF6EEC
:1000B800922B9251C80FD96EDA6A0BC0DFFF922BD0
:1000C80002D0000E926F9D8A0AC0DAFF09C0D9FFDC
:1000D80008C0E2FF07C0E1FF449211009EEF05F05F
:100600000000000E126E000E136E000E176E000E2C
:10061000166E0A0E48EC06F0126E290E116E960E3A
:10062000106E7F0EE82EFED7102EFCD7112EFAD7B3
:1006300000000B0E48EC06F0136E135012C010F0C1
:10064000116A10C011F0106A1010316E1150326E24
:10065000312807E13228D8A404D0000E326E000EF3
:10066000316E31C016F032C017F000019651C80F3C
:10067000D96EDA6ADF50106E1050146E156A31C0F0
:100680000DF032C00EF09651C80FD96EDA6ADF5005
:100690000F6E0EEC06F0314A322AD00E106ECA0EE2
:1006A000E82EFED7102EFCD7000E196E000E186E25
:1006B00017D0185031240D6E195032200E6E18507C
:1006C000980FD96EDA6ADF500F6E0EEC06F0D00E7E
:1006D000106ECA0EE82EFED7102EFCD7184A192A23
:1006E0001450185C15501958D8A0E3D7145031266F
:1006F00015503222520E116E2B0E106E000EE82E87
:10070000FED7102EFCD7112EFAD700D032C00CF035
:100710000A0EC1EC05F0520E116E2B0E106E000E7B
:10072000E82EFED7102EFCD7112EFAD700D031C0FC
:100730000CF00B0EC1EC05F0520E116E2B0E106E6C
:10074000000EE82EFED7102EFCD7112EFAD700D0BF
:1007500094C01EF095C01FF017C020F016C021F005
:100760004350D8A402D0010E01D0000E226E120018
:10077000000E166E000E126E000E136E000E156E39
:1007800000019651C80FD96EDA6ADF50146E080E58
:10079000146404D0FF0E4FEC06F01200520E116EDE
:1007A0002B0E106E000EE82EFED7102EFCD7112E49
:1007B000FAD700D014C00CF0000EC1EC05F0520EB8
:1007C000116E2B0E106E000EE82EFED7102EFCD7E9
:1007D000112EFAD700D0152A000E166E26D0290E3B
:1007E000116E960E106E7F0EE82EFED7102EFCD7DF
:1007F000112EFAD700001650980FD96EDA6ADF5022
:100800000C6E15501624C1EC05F0290E116E960ED3
:10081000106E7F0EE82EFED7102EFCD7112EFAD7C1
:10082000000015501624126E162A1450165CD8A01B
:10083000D6D7090E116E1E0E106EE40EE82EFED7EE
:10084000102EFCD7112EFAD700D0125048EC06F02B
:10085000136E090E116E1E0E106EE40EE82EFED7FA
:10086000102EFCD7112EFAD700D094C01EF095C0E0
:100870001FF013C020F0000E216E000E226E120039
:100880000EC010F0116A126A0D34103601E31180A7
:1008900010501A6E1A50D8A409D0000E0C6E000E1B
:1008A0000D6E000E0E6E000E0F6E1200170E106E03
:1008B0000CC011F00DC012F00EC013F01028146E11
:1008C00004D0D890133212321132142EFAD71150AC
:1008D000156E0D8EFF0E0C16FF0E0D16000E0E1669
:1008E0000C50166E0D50176E0E50186E196A8E0E43
:1008F0001A5E1AAE0DD01A50800A8F0FD8A0CDD72D
:10090000D89019321832173216321A3EF9D70DD054
:10091000170E1A6407D0C1D7D89016361736183676
:1009200019361A061A50D8A4F7D71550D8B408D0DB
:10093000191E181E171E166C000E172218221922D7
:1009400016C00CF017C00DF018C00EF019C00FF053
:100950001200000E0F6E290E0E6E960E0D6E7F0E9B
:10096000E82EFED70D2EFCD70E2EFAD70000000E73
:1009700048EC06F0106E290E0E6E960E0D6E7F0E70
:10098000E82EFED70D2EFCD70E2EFAD700000F2A28
:100990001028D8B42AD0000E116E22D0290E0E6E67
:1009A000960E0D6E7F0EE82EFED70D2EFCD70E2E66
:1009B000FAD700001150280FD96EDA6A0F501124AF
:1009C00048EC06F0DF6E290E0E6E960E0D6E7F0E51
:1009D000E82EFED70D2EFCD70E2EFAD70000112AD6
:1009E0001050115CD8B003D0D9D7000E426E10C0A1
:1009F00030F012003A0E4FEC06F0D00E0D6ECA0E1B
:100A0000E82EFED70D2EFCD7230E4FEC06F0D00EAD
:100A10000D6ECA0EE82EFED70D2EFCD7000E0F6EFF
:100A2000000E0E6E0E501E0FD96EDA6ADF504FECBC
:100A300006F0D00E0D6ECA0EE82EFED70D2EFCD796
:100A40000E4A0F2A0F5004E10A0E0E5CD8A0EAD716
:100A50000D0E4FEC06F0D00E0D6ECA0EE82EFED72E
:100A60000D2EFCD70A0E4FEC06F0000E0F6E320E64
:100A70000E6E09D00E50FA08D96EDA6AFF0EDF6EDC
:100A80000E06D8A00F060E500F10D8B41200F2D7E1
:100A9000000E046E000E036E000E026E000E016E5C
:100AA000C8C094F0C9C095F0000E066E000E056E29
:100AB00012D00550CA0FD96EDA6A0550980FE16E50
:100AC000E26ADFCFE7FF020E0524036E000E062068
:100AD000046E054A062A0550CA0FD96EDA6ADF503D
:100AE000D8A4E7D703C096F004C097F0120095C0D1
:100AF0001AF0210E00019419D8A4120009D038EC84
:100B000006F019D001EC03F016D0B8EC03F013D0C6
:100B10001A50010AD8B4F6D7030AD8B40CD0010A87
:100B2000D8B409D0070AD8B406D0150AD8B4E7D784
:100B3000E00AD8B4EAD7FAEC04F01200820EF66E9E
:100B40000C0EF76E000EF86E00EE36F010EE0EF0A2
:100B50000900F5CFEEFFE550E150FAE100EE60F05C
:100B60009A0EEE6AE806FDE100EE1EF0180EEE6A3F
:100B7000E806FDE144904492000EF86E0001FCEF9F
:100B800005F00F6E520E0E6E2B0E0D6E000EE82E3F
:100B9000FED70D2EFCD70E2EFAD700D00FC0A9FF1E
:100BA0000CC0A8FFA69EA69CA684F29E550EA76E1A
:100BB000AA0EA76EA682F28EA1A8FED7A198120057
:100BC000949C948E0F013A9FF28EF28C9D8A200E97
:100BD000AC6E900EAB6E550E1B6ECE0E1C6E420EA2
:100BE0001D6E1BC00CF01CC00DF01DC00EF040ECC3
:100BF00004F00C50AF6E1200700ED36EC00E9B6EE0
:100C0000E0EC05F02CEC06F0A9EC04F03550D8B47B
:100C1000FDD777EC05F0000E356EF8D75AEC06F0EC
:100C2000A00E20EC06F0436E0E5020EC06F00D50A6
:100C300020EC06F00F5020EC06F055EC06F0120008
:100C40000C6E0CC0C9FF9EA6FED79E96C5AC02D006
:100C5000010E1200000E1200948894860F013A973C
:100C60003A99800EC76E280EC66E9F0EC86E12008F
:100C700094C01EF095C01FF0000E206E000E216E75
:100C8000120000010203040506070809E803010138
:100C90000C6E0CC0A9FFA69EA680A85012000C6E78
:100CA0009EA8FED70CC0ADFF1200C5849EA6FED73D
:0E0CB0009E961200C5809EA6FED79E9612004C
:020000040030CA
:0E000000FF380F3CFFBF85FF0FC00FE00F4021
:00000001FF
