:0400000075EF00F0A8
:100008003682E1CF07F0E2CF08F0D9CF09F0DACF96
:100018000AF09EAA5CD0AECF0BF09D9AABB2AB981B
:1000280000019351D8A417D03A0E0B18D8A405D0C4
:100038003450D8A402D0010E341A230E0B18D8A4B9
:1000480044D03404D8A441D0010E936F000E926FAF
:10005800010E341A3AD00D0E0B18D8A405D033501F
:10006800D8A402D0010E16D00A0E0B18D8A414D0AA
:100078003304D8A411D09251C80FD96EDA6ADF6A56
:10008800922B35EC04F0000E926F000E936F010E68
:10009800356E000E336E19D0320E926114D03304CF
:1000A800D8A409D0000E336E9251C80FD96EDA6AFF
:1000B8000D0EDF6E922B9251C80FD96EDA6A0BC003
:1000C800DFFF922B02D0000E926FAB889D8A0AC088
:1000D800DAFF09C0D9FF08C0E2FF07C0E1FF369286
:0600E800110064EF04F0BA
:10060000000000019651C80FD96EDA6ADF50106EF3
:100610001050136E146A31C00DF032C00EF09651B6
:10062000C80FD96EDA6ADF500F6EE3EC04F0314A7E
:10063000322AD00E106ECA0EE82EFED7102EFCD72E
:10064000000E166E000E156E17D0155031240D6E6B
:10065000165032200E6E1550980FD96EDA6ADF50A0
:100660000F6EE3EC04F0D00E106ECA0EE82EFED72B
:10067000102EFCD7154A162A1350155C1450165824
:10068000D8A0E3D71350312614503222090E116E30
:100690001E0E106EE40EE82EFED7102EFCD7112E83
:1006A000FAD700D02EEC05F0A00EF5EC04F0FF0E0A
:1006B0003124106EFF0E3220116E11C010F0116A3D
:1006C0001050F5EC04F03104F5EC04F02EEC05F0DC
:1006D000A10EF5EC04F01DEC05F0126E29EC05F00E
:1006E00094C02DF095C02EF012C02FF02C50D8A43D
:1006F00002D0010E01D0000E306E12000EC010F0BC
:10070000116A126A0D34103601E3118010501A6E0E
:100710001A50D8A409D0000E0C6E000E0D6E000EFB
:100720000E6E000E0F6E1200170E106E0CC011F040
:100730000DC012F00EC013F01028146E04D0D89023
:10074000133212321132142EFAD71150156E0D8E4B
:10075000FF0E0C16FF0E0D16000E0E160C50166E28
:100760000D50176E0E50186E196A8E0E1A5E1AAE64
:100770000DD01A50800A8F0FD8A0CDD7D89019323B
:100780001832173216321A3EF9D70DD0170E1A64E6
:1007900007D0C1D7D89016361736183619361A062C
:1007A0001A50D8A4F7D71550D8B408D0191E181E5F
:1007B000171E166C000E17221822192216C00CF0F4
:1007C00017C00DF018C00EF019C00FF012003A0E4D
:1007D00023EC05F0D00E0D6ECA0EE82EFED70D2EBE
:1007E000FCD7230E23EC05F0D00E0D6ECA0EE82EBA
:1007F000FED70D2EFCD7000E0F6E000E0E6E0E50A3
:100800002D0FD96EDA6ADF5023EC05F0D00E0D6E95
:10081000CA0EE82EFED70D2EFCD70E4A0F2A0F5017
:1008200004E1040E0E5CD8A0EAD70D0E23EC05F00F
:10083000D00E0D6ECA0EE82EFED70D2EFCD70A0E76
:1008400023EC05F0000E0F6E320E0E6E09D00E5026
:10085000FA08D96EDA6AFF0EDF6E0E06D8A00F0610
:100860000E500F10D8B41200F2D7000E046E000E16
:10087000036E000E026E000E016EC8C094F0C9C077
:1008800095F0000E066E000E056E12D00550CA0FD0
:10089000D96EDA6A0550980FE16EE26ADFCFE7FFA2
:1008A000020E0524036E000E0620046E054A062A79
:1008B0000550CA0FD96EDA6ADF50D8A4E7D703C053
:1008C00096F004C097F012002C0EF66E0A0EF76E2A
:1008D000000EF86E00EE20F010EE0DF00900F5CFDE
:1008E000EEFFE550E150FAE100EE60F09A0EEE6A9C
:1008F000E806FDE100EE2DF0090EEE6AE806FDE1E6
:1009000036903692000EF86E0001C7EF04F095C0E5
:1009100017F0210E00019419D8A4120006D00DEC96
:1009200005F013D001EC03F010D01750010AD8B431
:10093000F9D7030AD8B409D0010AD8B406D0070AF7
:10094000D8B403D0150AD8B4EAD7E7EC03F0120004
:10095000550E1B6ECE0E1C6E420E1D6E1BC00CF093
:100960001CC00DF01DC00EF07EEC03F00C50AF6EFD
:100970000F0EE06E5F0E946E7C0E3A6FC00EF26E3C
:10098000200E9D6E200EAC6E900EAB6E1200700E9F
:10099000D36EC00E9B6EA8EC04F001EC05F0090EBE
:1009A0001F6E1E0E1E6EE40EE82EFED71E2EFCD706
:1009B0001F2EFAD700D03550D8B4FDD787EC04F0FD
:1009C000000E356EF8D72EEC05F0A00EF5EC04F015
:1009D0002C6E0E50F5EC04F00D50F5EC04F00F50B9
:1009E000F5EC04F029EC05F012000C6E0CC0C9FF08
:1009F0009EA6FED79E96C5AC02D0010E1200000E38
:100A00001200948894860F013A973A99800EC76E27
:100A1000280EC66E9F0EC86E120094C02DF095C0B1
:100A20002EF0000E2F6E000E306E12000001020339
:090A3000040506070809E80301AA
:100A3A00C5869EA6FED79E96C95012000C6E9EA829
:100A4A00FED70CC0ADFF1200C5849EA6FED79E96A7
:0C0A5A001200C5809EA6FED79E961200DA
:020000040030CA
:0E000000FF380F3CFFBF85FF0FC00FE00F4021
:00000001FF
