:040000007BEF00F0A2
:100008005482E1CF07F0E2CF08F0D9CF09F0DACF78
:100018000AF09EAA62D0AECF0BF09D9A010133512F
:10002800D8A419D03A0E0B18D8A405D04E50D8A48D
:1000380002D0010E0CD0230E0B18D8A40AD04E04FF
:10004800D8A407D0010E336F000E326F02D04E6E67
:1000580043D0000EFCD70D0E0B18D8A405D04D5078
:10006800D8A402D0010E19D00A0E0B18D8A417D0A4
:100078004D04D8A414D0340E3225D96EDA6A010E94
:10008800DA22DF6A322B33EC0AF0000E0101326FFC
:10009800000E336F010E4F6E000E4D6E1DD0320EE6
:1000A800326118D04D04D8A40BD0000E4D6E340E1A
:1000B8003225D96EDA6A010EDA220D0EDF6E322B86
:1000C800340E3225D96EDA6A010EDA220BC0DFFF50
:1000D800322B02D0000E326F9D8A0AC0DAFF09C0A7
:1000E800D9FF08C0E2FF07C0E1FF54921100AEEF4C
:0200F80009F00D
:100600000000000E126E000E136E000E146E000E2F
:10061000156E000E1B6E000E1A6E000E1D6E000E83
:100620001C6E0A0EE8EC0BF0126E290E116E960E7F
:10063000106E7F0EE82EFED7102EFCD7112EFAD7A3
:1006400000000B0EE8EC0BF0136E0C0EE8EC0BF058
:10065000146E290E116E960E106E7F0EE82EFED7C8
:10066000102EFCD7112EFAD700000D0EE8EC0BF07F
:10067000156E135012C010F0116A10C011F0106AFC
:100680001010496E11504A6E155014C010F0116AC6
:1006900010C011F0106A10101C6E11501D6E492808
:1006A00007E14A28D8A404D0000E4A6E000E496E15
:1006B0001C2807E11D28D8A404D0780E1D6E000E5A
:1006C0001C6E49C01AF04AC01BF0340E00016225AE
:1006D000D96E010E6321DA6EDF50106E1050166E67
:1006E000176AFF0E106E770E116E4950105E4A5059
:1006F000115A1050165C11501758D8A005D0010E91
:100700004C6E070E4B6E120049C00DF04AC00EF041
:10071000340E6225D96E010E6321DA6EDF500F6E42
:10072000B4EC0BF0494A4A2AD00E106ECA0EE82EDD
:10073000FED7102EFCD7000E196E000E186E17D0C3
:10074000185049240D6E19504A200E6E1850640F2F
:10075000D96EDA6ADF500F6EB4EC0BF0D00E106E6B
:10076000CA0EE82EFED7102EFCD7184A192A1650AA
:10077000185C17501958D8A0E3D7165049261750BF
:100780004A22290E116E960E106E7F0EE82EFED7AD
:10079000102EFCD7112EFAD700004AC00CF00A0E1A
:1007A00030EC0BF0290E116E960E106E7F0EE82EB7
:1007B000FED7102EFCD7112EFAD7000049C00CF03E
:1007C0000B0E30EC0BF0290E116E960E106E7F0E94
:1007D000E82EFED7102EFCD7112EFAD700001C28C9
:1007E0007F0E1D58D8B08BD71CC00DF01DC00EF069
:1007F0001BC00FF0B4EC0BF0D00E106ECA0EE82E3A
:10080000FED7102EFCD7010E1C240D6E000E1D20ED
:100810000E6E1AC00FF0B4EC0BF0020E1C26000E88
:100820001D22290E116E960E106E7F0EE82EFED739
:10083000102EFCD7112EFAD700001DC00CF00C0EA4
:1008400030EC0BF0290E116E960E106E7F0EE82E16
:10085000FED7102EFCD7112EFAD700001CC00CF0CA
:100860000D0E30EC0BF0290E116E960E106E7F0EF1
:10087000E82EFED7102EFCD7112EFAD7000060C04C
:1008800094F061C095F01BC096F01AC097F000017B
:1008900098691200000E0001D86F000EDF6F000E85
:1008A000DE6F780ECB6F000ECA6F000ED96F000E90
:1008B000DA6F000EDB6F000EDD6F000EDC6FDCC048
:1008C0000DF0DDC00EF087EC0BF00001D86FD829D9
:1008D000D8A406D0010EDE25DE6F000EDF21DF6F0B
:1008E000DC4BDD2B780EDD5DD8A0E9D7DEC036F01D
:1008F000DFC037F0000E396E640E386EF1EC09F08F
:1009000036C0CCF037C0CDF0000E396E0A0E386E0E
:10091000DEC036F0DFC037F0F1EC09F036C0C6F0CB
:1009200037C0C7F0000E0001C96F0A0EC86FAAECED
:100930000AF0C6C0CEF0C7C0CFF0DEC0C6F0DFC040
:10094000C7F0000EC96F0A0EC86FAAEC0AF0C6C045
:10095000D0F0C7C0D1F0CC51E30FD96EDA6ADF50C6
:10096000F5EC0BF00001CE51E30FD96EDA6ADF50DF
:10097000F5EC0BF00001D051E30FD96EDA6ADF50CD
:10098000F5EC0BF0CAC014F0CBC015F04FEC0BF037
:1009900014C01BF015C01CF016C01DF0DEC014F012
:1009A000DFC015F04FEC0BF014C018F015C019F0B3
:1009B00016C01AF07DEC07F018C027F019C028F017
:1009C0001AC029F0000E2A6EC80E2B6E420E2C6E35
:1009D00003EC07F027C0D9F028C0DAF029C0DBF01B
:1009E000000E1B6EC80E1C6E420E1D6ED9C018F094
:1009F000DAC019F0DBC01AF07DEC07F018C027F060
:100A000019C028F01AC029F0F0EC07F027C0D2F086
:100A100028C0D3F0000E396E0A0E386ED9C027F008
:100A2000DAC028F0DBC029F0F0EC07F027C036F080
:100A300028C037F0F1EC09F036C0C6F037C0C7F077
:100A4000000E0001C96F0A0EC86FAAEC0AF0C6C0FA
:100A5000D4F0C7C0D5F0D9C027F0DAC028F0DBC089
:100A600029F0F0EC07F027C0C6F028C0C7F0000E50
:100A70000001C96F0A0EC86FAAEC0AF0C6C0D6F012
:100A8000C7C0D7F0D251E30FD96EDA6ADF50F5EC68
:100A90000BF00001D451E30FD96EDA6ADF50F5ECA8
:100AA0000BF00001D651E30FD96EDA6ADF50F5EC96
:100AB0000BF01200000E196E000E136E000E186E71
:100AC000020E126E000E156E000E146E000E196EE0
:100AD0000BD01950640FD96EDA6A1950160FE16EF7
:100AE000E26ADFCFE7FF192A1250195CD8A0F1D7CC
:100AF0001650F5EC0BF01750F5EC0BF0175016C034
:100B000010F0116A10C011F0106A1010146E11501C
:100B1000156E050E116E0F0E106EF10EE82EFED73B
:100B2000102EFCD7112EFAD7000014C00DF015C0FE
:100B30000EF087EC0BF0106E10501A6E1B6A050E4B
:100B4000116E0F0E106EF10EE82EFED7102EFCD790
:100B5000112EFAD700001B50F5EC0BF01A50F5ECF3
:100B60000BF0144A152A1A281B10D8A404D0FF0E23
:100B7000F5EC0BF0120060C094F061C095F0020E2D
:100B80001826000E1D6E000E1C6E1BD01850940F00
:100B90001C24D96EDA6A1C5014240D6E1D501520C9
:100BA0000E6E87EC0BF0DF6E1850940F1C24D96E7C
:100BB000DA6ADF50F5EC0BF018501C24136E1C4A57
:100BC0001D2A1A501C5C1B501D58D8A0DFD713508B
:100BD000950FD96EDA6ADF6A12000E6E3A0EF5ECE6
:100BE0000BF0D00E0D6ECA0EE82EFED70D2EFCD7E0
:100BF000230EF5EC0BF0D00E0D6ECA0EE82EFED7CC
:100C00000D2EFCD70E50D8A41BD0000E106E000E77
:100C10000F6E0F50940FD96EDA6ADF50F5EC0BF0BF
:100C2000D00E0D6ECA0EE82EFED70D2EFCD70F4A41
:100C3000102A105027E1320E0F5CD8B023D0E9D72C
:100C4000210EF5EC0BF0D00E0D6ECA0EE82EFED77D
:100C50000D2EFCD7FE0EF5EC0BF0D00E0D6ECA0E6D
:100C6000E82EFED70D2EFCD74B50F5EC0BF0D00E36
:100C70000D6ECA0EE82EFED70D2EFCD7000E4C6E60
:100C8000000E4B6E0D0EF5EC0BF0D00E0D6ECA0E75
:100C9000E82EFED70D2EFCD70A0EF5EC0BF0000E59
:100CA000106E320E0F6E0DD00F506608D96E1050B8
:100CB000D8A0E82A0108DA6EFF0EDF6E0F06D8A072
:100CC00010060F501010D8A4EFD7000E106E000EB3
:100CD0000F6E08D00F50940FD96EDA6AFF0EDF6ED8
:100CE0000F4A102A105005E1320E0F5CD8B01200E6
:100CF000F1D71200000E166E000E126E000E136E6B
:100D0000000E156E340E00016225D96E010E6321AE
:100D1000DA6EDF50146E080E146405D0010E4C6EAE
:100D2000050E4B6E1200520E116E2B0E106E000E41
:100D3000E82EFED7102EFCD7112EFAD700D014C003
:100D40000CF0000E30EC0BF0520E116E2B0E106EEC
:100D5000000EE82EFED7102EFCD7112EFAD700D0A9
:100D6000152A000E166E26D0290E116E960E106EE4
:100D70007F0EE82EFED7102EFCD7112EFAD70000DA
:100D80001650640FD96EDA6ADF500C6E15501624B7
:100D900030EC0BF0290E116E960E106E7F0EE82EC1
:100DA000FED7102EFCD7112EFAD7000015501624AE
:100DB000126E162A1450165CD8A0D6D7090E116EE2
:100DC0001E0E106EE40EE82EFED7102EFCD7112E4C
:100DD000FAD700D01250E8EC0BF0136E090E116E2A
:100DE0001E0E106EE40EE82EFED7102EFCD7112E2C
:100DF000FAD700D0000E4C6E60C094F061C095F040
:100E000013C096F0120029C02DF02E6A2F6A2834E4
:100E10002D3601E32E802D50306E3050D8A407D0EF
:100E2000000E276E000E286E000E296E12002CC0D8
:100E30002DF02E6A2F6A2B342D3601E32E802D5093
:100E4000356E3550D8A407D0000E276E000E286EE0
:100E5000000E296E120035507B0F302629C035F068
:100E60002C50351A800E3516288E2B8EFF0E2A1622
:100E7000FF0E2B16000E2C16000E316E000E326E79
:100E8000000E336E070E346E27A006D02A5031268E
:100E90002B5032222C503322D8902932283227323C
:100EA000D8902A362B362C36342EEED7090E346ED7
:100EB00027A006D02A5031262B5032222C50332224
:100EC000D890293228322732D89033323232313218
:100ED000342EEED731C00CF032C00DF033C00EF01E
:100EE00030C00FF035C010F059EC08F00CC027F0FE
:100EF0000DC028F00EC029F012001AC01EF01F6AA3
:100F0000206A19341E3601E31F801E50256E2550BD
:100F1000D8A407D0000E186E000E196E000E1A6EBF
:100F200012001DC01EF01F6A206A1C341E3601E329
:100F30001F801E50266E2650D8A407D0000E186EB3
:100F4000000E196E000E1A6E1200000E226E000EB8
:100F5000236E000E246E2650890F255E1AC026F0DF
:100F60001D50261A800E2616198EFF0E1816FF0E1B
:100F70001916000E1A161C8EFF0E1B16FF0E1C16DD
:100F8000000E1D16180E216ED890223623362436F8
:100F90001B50185C1C5019581D501A58D8A007D067
:100FA0001B50185E1C50195A1D501A5A2280D89096
:100FB000183619361A36212EE7D722C00CF023C076
:100FC0000DF024C00EF025C00FF026C010F059EC33
:100FD00008F00CC018F00DC019F00EC01AF0120085
:100FE00029C02BF02C6A2D6A28342B3601E32C8083
:100FF0002B50356E3550D8A409D0000E276E000E48
:10100000286E000E296E000E2A6E1200170E2B6E2F
:1010100027C02CF028C02DF029C02EF02B282F6ED1
:1010200004D0D8902E322D322C322F2EFAD72C50BD
:10103000306E288EFF0E2716FF0E2816000E29167A
:101040002750316E2850326E2950336E346A8E0E1E
:10105000355E35AE0DD03550800A8F0FD8A0CDD774
:10106000D8903432333232323132353EF9D70DD066
:10107000170E356407D0C1D7D890313632363336A3
:10108000343635063550D8A4F7D73050D8B408D008
:10109000341E331E321E316C000E322233223422B3
:1010A00031C027F032C028F033C029F034C02AF014
:1010B00012000F50D8B405D00C500D100E10D8A44B
:1010C0000CD0000E0C6E000E0D6E000E0E6E120097
:1010D0000F2AD8900E320D320C32000E0C14116E05
:1010E000000E0D14126EFE0E0E14136E115012101F
:1010F0001310D8B40CD0ECD70F2A010E0C26000E1A
:101100000D22000E0E22D8900E320D320C32000E3F
:101110000C14116E000E0D14126EFF0E0E14136ED1
:10112000115012101310D8B406D0E6D70F06D8907D
:101130000C360D360E360DBE03D0020E0F60F6D7FC
:101140000FA00D9ED8900F320F500E121050D8A441
:101150000E8E0CC00CF00DC00DF00EC00EF0120083
:1011600061C0E0F05250D8A404D0010E4C6E030EC2
:101170004B6E210E00016019D8A440D04C50D8B459
:1011800023D0120EE019D8B41FD03CD0DEEC0BF007
:1011900039D001EC03F036D05AEC05F033D04AECEC
:1011A00004F030D09EEC0BF02DD05BEC09F02AD08F
:1011B0007AEC06F027D070EC0AF00009D8A422D00F
:1011C000010E4C6E040E1DD0E051010AD8B4E1D7D7
:1011D000030AD8B4E1D7010AD8B4E4D7070AD8B4CF
:1011E000DED7140AD8B4E1D7010AD8B4CFD7030A9E
:1011F000D8B4DED7010AD8B4DED704D0010E4C6EC5
:10120000060E4B6E4C50EDEC05F01200000E0F6E0A
:10121000290E0E6E960E0D6E7F0EE82EFED70D2E49
:10122000FCD70E2EFAD70000000EE8EC0BF0106E83
:10123000290E0E6E960E0D6E7F0EE82EFED70D2E29
:10124000FCD70E2EFAD700000F2A1028D8B42ED0C3
:10125000000E116E22D0290E0E6E960E0D6E7F0EB0
:10126000E82EFED70D2EFCD70E2EFAD70000115017
:10127000400FD96EDA6A0F501124E8EC0BF0DF6EE4
:10128000290E0E6E960E0D6E7F0EE82EFED70D2ED9
:10129000FCD70E2EFAD70000112A1050115CD8A0EE
:1012A000DAD7000E4C6E000E4B6E02D0000E526E5E
:1012B00010C048F012001268000E146E000E136E7B
:1012C0001450F5EC0BF01350F5EC0BF0D00E106E43
:1012D000CA0EE82EFED7102EFCD713C00DF014C096
:1012E0000EF012C00FF0B4EC0BF0134A142A800E6B
:1012F000145CD8A0E5D7290E116E960E106E7F0EE5
:10130000E82EFED7102EFCD7112EFAD70000FF0EC4
:101310000C6E0A0E30EC0BF0290E116E960E106E4C
:101320007F0EE82EFED7102EFCD7112EFAD7000024
:10133000FF0E0C6E0B0E30EC0BF0290E116E960E9C
:10134000106E7F0EE82EFED7102EFCD7112EFAD786
:10135000000060C094F061C095F01200F60EF66EC9
:10136000170EF76E000EF86E00EEE3F010EE0AF0C6
:101370000900F5CFEEFFE550E150FAE1140EF66EEC
:10138000180EF76E000EF86E00EE50F010EE04F03E
:101390000900F5CFEEFFE550E150FAE101EE66F00D
:1013A00011EE90F0EE6AE550E150FCE1E250FAE116
:1013B00001EE00F0660EEE6AE806FDE100EE60F078
:1013C000660EEE6AE806FDE100EE40F0100EEE6AF1
:1013D000E806FDE154905492000EF86E0001E2EF31
:1013E0000AF0000E3B6E39AE06D0386C391ED8B00C
:1013F000392A010E3B6E37AE06D0366C371ED8B098
:10140000372A010E3B1A000E3D6E000E3C6E38501E
:101410003910D8B41CD0010E3A6E04D0D8903836AA
:1014200039363A2A39AEFAD7D8903C363D3638505C
:10143000365C39503758D8A005D03850365E395010
:10144000375A3C80D890393238323A2EEDD73B505B
:10145000D8B404D03C6C3D1ED8B03D2A3CC036F018
:101460003DC037F01200000E046E000E036E000E39
:10147000026E000E016E34C160F035C161F0020EE3
:1014800000016119D8B427D0000E066E000E056E5B
:1014900014D0360E0524D96E010E0620DA6E0550E2
:1014A000640FE16EE26ADFCFE7FF020E0524036EF0
:1014B000000E0620046E054A062A360E0524D96E53
:1014C000010E0620DA6EDF50D8A4E3D703C062F025
:1014D00004C063F0120036C164F037C165F0120039
:1014E000000E116E010E106E340E00016225D96ED1
:1014F000010E6321DA6EDF500F6E0F504818D8B41A
:1015000002D0000E1200000E116E1ED01150400FBE
:10151000D96EDA6ADF50F5EC0BF01150640FD96E1A
:10152000DA6ADF50F5EC0BF01150640FD96EDA6A0D
:101530001150400FE16EE26ADE50E618D8B403D0D5
:10154000000E106E05D0112A4850115CD8A0DED7CD
:1015500010501200000E3F6EC7AF06D0C66DC71FF9
:10156000D8B0C72B010E3F6EC9AF04D0C86DC91FDC
:10157000D8B0C92BC851C911D8B418D0010E3E6ECD
:1015800004D0D890C837C9373E2AC9AFFAD7C85156
:10159000C65DC951C759D8A004D0C851C65FC9514A
:1015A000C75BD890C933C8333E2EF1D73F50D8B46B
:1015B00004D0C66DC71FD8B0C72BC6C0C6F0C7C001
:1015C000C7F01200700ED36EC00E9B6E6BEC0BF06A
:1015D000D2EC0BF006EC09F0090E0001E26F1E0ED2
:1015E000E16FE40EE82EFED7E12FFCD7E22FFAD709
:1015F000000010EC0BF0090E0001E26F1E0EE16F0F
:10160000E40EE82EFED7E12FFCD7E22FFAD7000038
:101610004F50D8B4FDD7B0EC08F0000E4F6EF8D79D
:10162000780E116E000E106E000E136E000E126E0C
:10163000660E1224D96E010E1320DA6E1250102499
:101640000D6E135011200E6E87EC0BF0DF6E124AF8
:10165000132A900E125C010E1358D8B01200E8D76E
:101660000F6E290E0E6E960E0D6E7F0EE82EFED7B3
:101670000D2EFCD70E2EFAD700000FC0A9FF0CC00C
:10168000A8FFA69EA69CA684F29E550EA76EAA0E43
:10169000A76EA682F28EA1A8FED7A1981200000E16
:1016A000176E15AE06D0146C151ED8B0152A010E93
:1016B000176E14C00CF015C00DF00E6A8E0E0F6E72
:1016C00017C010F059EC08F00CC014F00DC015F064
:1016D0000EC016F01200949C948E0F013A9FF28E69
:1016E000F28C9D8A200EAC6E900EAB6E550E366E4F
:1016F000CE0E376E420E386E36C027F037C028F057
:1017000038C029F0F0EC07F02750AF6E120005EC5E
:101710000CF0A00EC6EC0BF00E50C6EC0BF00D500A
:10172000C6EC0BF005EC0CF0A10EC6EC0BF0EFECE8
:101730000BF00F6E00EC0CF00F501200000E0E6E4E
:10174000000E0D6E660E0D24D96E010E0E20DA6E9F
:10175000DF50F5EC0BF00D4A0E2A900E0D5C010ED9
:101760000E58D8B01200EED705EC0CF0A00EC6EC67
:101770000BF0536E0E50C6EC0BF00D50C6EC0BF098
:101780000F50C6EC0BF000EC0CF012000C6E0CC00D
:10179000C9FF9EA6FED79E96C5AC02D0010E1200D0
:1017A000000E1200948894860F013A973A99800EA1
:1017B000C76E280EC66E9F0EC86E120060C094F0F1
:1017C00061C095F0000E0001966F000E976F120039
:1017D0000C6E0CC0A9FFA69EA680A8501200C5865C
:1017E0009EA6FED79E96C95012000C6E9EA8FED7EC
:1017F0000CC0ADFF12000001020304050607080932
:10180000C5849EA6FED79E961200C5809EA6FED7D2
:081810009E961200E80301019D
:020000040030CA
:0E000000FF380F3CFFBF85FF0FC00FE00F4021
:00000001FF
