:0400000074EF00F0A9
:100008004682E1CF07F0E2CF08F0D9CF09F0DACF86
:100018000AF09EAA5BD0AECF0BF09D9A00019351D7
:10002800D8A419D03A0E0B18D8A405D03650D8A4A5
:1000380002D0010E0CD0230E0B18D8A40AD0360417
:10004800D8A407D0010E936F000E926F02D0366EBF
:100058003CD0000EFCD70D0E0B18D8A405D0355097
:10006800D8A402D0010E16D00A0E0B18D8A414D0AA
:100078003504D8A411D09251C80FD96EDA6ADF6A54
:10008800922BB8EC05F0000E926F000E936F010EE4
:10009800376E000E356E19D0320E926114D03504C9
:1000A800D8A409D0000E356E9251C80FD96EDA6AFD
:1000B8000D0EDF6E922B9251C80FD96EDA6A0BC003
:1000C800DFFF922B02D0000E926F9D8A0AC0DAFFE2
:1000D80009C0D9FF08C0E2FF07C0E1FF469211003E
:0400E80011EF06F01E
:100600000000000E126E000E136E000E176E000E2C
:10061000166E0A0EBBEC06F0126E290E116E960EC7
:10062000106E7F0EE82EFED7102EFCD7112EFAD7B3
:1006300000000B0EBBEC06F0136E135012C010F04E
:10064000116A10C011F0106A1010316E1150326E24
:10065000312807E13228D8A404D0000E326E000EF3
:10066000316E31C016F032C017F000019651C80F3C
:10067000D96EDA6ADF50106E1050146E156A31C0F0
:100680000DF032C00EF09651C80FD96EDA6ADF5005
:100690000F6E81EC06F0314A322AD00E106ECA0E6F
:1006A000E82EFED7102EFCD7000E196E000E186E25
:1006B00017D0185031240D6E195032200E6E18507C
:1006C000980FD96EDA6ADF500F6E81EC06F0D00E0B
:1006D000106ECA0EE82EFED7102EFCD7184A192A23
:1006E0001450185C15501958D8A0E3D7145031266F
:1006F00015503222520E116E2B0E106E000EE82E87
:10070000FED7102EFCD7112EFAD700D032C00CF035
:100710000A0E34EC06F0520E116E2B0E106E000E07
:10072000E82EFED7102EFCD7112EFAD700D031C0FC
:100730000CF00B0E34EC06F0520E116E2B0E106EF8
:10074000000EE82EFED7102EFCD7112EFAD700D0BF
:1007500094C01EF095C01FF017C020F016C021F005
:100760004550D8A402D0010E01D0000E226E120016
:10077000000E166E000E126E000E136E000E156E39
:1007800000019651C80FD96EDA6ADF50146E080E58
:10079000146404D0FF0EC2EC06F01200520E116E6B
:1007A0002B0E106E000EE82EFED7102EFCD7112E49
:1007B000FAD700D014C00CF0000E34EC06F0520E44
:1007C000116E2B0E106E000EE82EFED7102EFCD7E9
:1007D000112EFAD700D0152A000E166E26D0290E3B
:1007E000116E960E106E7F0EE82EFED7102EFCD7DF
:1007F000112EFAD700001650980FD96EDA6ADF5022
:100800000C6E1550162434EC06F0290E116E960E5F
:10081000106E7F0EE82EFED7102EFCD7112EFAD7C1
:10082000000015501624126E162A1450165CD8A01B
:10083000D6D7090E116E1E0E106EE40EE82EFED7EE
:10084000102EFCD7112EFAD700D01250BBEC06F0B8
:10085000136E090E116E1E0E106EE40EE82EFED7FA
:10086000102EFCD7112EFAD700D0000E346E94C093
:100870001EF095C01FF013C020F0000E216E000E78
:10088000226E12000E6E3A0EC2EC06F0D00E0D6E05
:10089000CA0EE82EFED70D2EFCD7230EC2EC06F0B2
:1008A000D00E0D6ECA0EE82EFED70D2EFCD70E50C0
:1008B000D8A41BD0000E106E000E0F6E0F501E0F2E
:1008C000D96EDA6ADF50C2EC06F0D00E0D6ECA0E99
:1008D000E82EFED70D2EFCD70F4A102A105027E124
:1008E0000A0E0F5CD8B023D0E9D7210EC2EC06F077
:1008F000D00E0D6ECA0EE82EFED70D2EFCD7FF0EC1
:10090000C2EC06F0D00E0D6ECA0EE82EFED70D2EEC
:10091000FCD73350C2EC06F0D00E0D6ECA0EE82E96
:10092000FED70D2EFCD7000E346E000E336E0D0E6A
:10093000C2EC06F0D00E0D6ECA0EE82EFED70D2EBC
:10094000FCD70A0EC2EC06F0000E106E320E0F6ECF
:1009500009D00F50FA08D96EDA6AFF0EDF6E0F0663
:10096000D8A010060F501010D8B41200F2D70EC045
:1009700010F0116A126A0D34103601E31180105024
:100980001A6E1A50D8A409D0000E0C6E000E0D6E0F
:10099000000E0E6E000E0F6E1200170E106E0CC0C1
:1009A00011F00DC012F00EC013F01028146E04D018
:1009B000D890133212321132142EFAD71150156E0C
:1009C0000D8EFF0E0C16FF0E0D16000E0E160C509F
:1009D000166E0D50176E0E50186E196A8E0E1A5E36
:1009E0001AAE0DD01A50800A8F0FD8A0CDD7D8904C
:1009F00019321832173216321A3EF9D70DD0170EA7
:100A00001A6407D0C1D7D89016361736183619365B
:100A10001A061A50D8A4F7D71550D8B408D0191E02
:100A2000181E171E166C000E17221822192216C047
:100A30000CF017C00DF018C00EF019C00FF0120026
:100A4000000E0F6E290E0E6E960E0D6E7F0EE82EA6
:100A5000FED70D2EFCD70E2EFAD70000000EBBECF1
:100A600006F0106E290E0E6E960E0D6E7F0EE82E9D
:100A7000FED70D2EFCD70E2EFAD700000F2A102815
:100A8000D8B42ED0000E116E22D0290E0E6E960E06
:100A90000D6E7F0EE82EFED70D2EFCD70E2EFAD748
:100AA00000001150280FD96EDA6A0F501124BBECE8
:100AB00006F0DF6E290E0E6E960E0D6E7F0EE82E7E
:100AC000FED70D2EFCD70E2EFAD70000112A10509B
:100AD000115CD8A0DAD7000E346E000E336E02D04F
:100AE000000E446E10C030F0120095C01AF0445051
:100AF000D8A404D0010E346E030E336E210E000113
:100B00009419D8A412003450D8B418D0F10E1A1881
:100B1000D8B414D029D0ABEC06F026D001EC03F009
:100B200023D0B8EC03F020D0E7EC05F00009D8A4FE
:100B30001BD0010E346E040E336E16D01A50010A0B
:100B4000D8B4ECD7030AD8B40FD0010AD8B40CD06B
:100B5000120AD8B4E0D7E10AD8B406D0010AD8B452
:100B6000E0D7030AD8B4E0D7345042EC04F01200C6
:100B7000000E046E000E036E000E026E000E016E7B
:100B8000C8C094F0C9C095F0000E066E000E056E48
:100B900012D00550CA0FD96EDA6A0550980FE16E6F
:100BA000E26ADFCFE7FF020E0524036E000E062087
:100BB000046E054A062A0550CA0FD96EDA6ADF505C
:100BC000D8A4E7D703C096F004C097F01200000E37
:100BD000106E010E0F6E00019651C80FD96EDA6AC1
:100BE000DF500E6E0E503018D8B402D0000E120036
:100BF000000E106E10D01050980FD96EDA6A105097
:100C0000280FE16EE26ADE50E618D8B403D0000E79
:100C10000F6E05D0102A3050105CD8A0ECD70F50C2
:100C20001200680EF66E0D0EF76E000EF86E00EEF6
:100C300038F010EE0EF00900F5CFEEFFE550E15070
:100C4000FAE100EE60F09A0EEE6AE806FDE100EED1
:100C50001EF01A0EEE6AE806FDE146904692000E7E
:100C6000F86E00016FEF06F00F6E520E0E6E2B0E37
:100C70000D6E000EE82EFED70D2EFCD70E2EFAD7E5
:100C800000D00FC0A9FF0CC0A8FFA69EA69CA684FA
:100C9000F29E550EA76EAA0EA76EA682F28EA1A88E
:100CA000FED7A1981200949C948E0F013A9FF28E69
:100CB000F28C9D8A200EAC6E900EAB6E550E1B6EA4
:100CC000CE0E1C6E420E1D6E1BC00CF01CC00DF033
:100CD0001DC00EF0B7EC04F00C50AF6E1200700E99
:100CE000D36EC00E9B6E53EC06F09FEC06F020EC2A
:100CF00005F03750D8B4FDD775EC05F0000E376E0F
:100D0000F8D7CDEC06F0A00E93EC06F0456E0E5031
:100D100093EC06F00D5093EC06F00F5093EC06F0B8
:100D2000C8EC06F012000C6E0CC0C9FF9EA6FED7E0
:100D30009E96C5AC02D0010E1200000E12009488DF
:100D400094860F013A973A99800EC76E280EC66EA8
:100D50009F0EC86E120094C01EF095C01FF0000ECA
:100D6000206E000E216E120000010203040506072A
:100D70000809E80301010C6E0CC0A9FFA69EA6801D
:100D8000A85012000C6E9EA8FED70CC0ADFF12003A
:100D9000C5849EA6FED79E961200C5809EA6FED74D
:040DA0009E96120009
:020000040030CA
:0E000000FF380F3CFFBF85FF0FC00FE00F4021
:00000001FF
