:040000007BEF00F0A2
:100008005082E1CF07F0E2CF08F0D9CF09F0DACF7C
:100018000AF09EAA62D0AECF0BF09D9A010133512F
:10002800D8A419D03A0E0B18D8A405D04B50D8A490
:1000380002D0010E0CD0230E0B18D8A40AD04B0402
:10004800D8A407D0010E336F000E326F02D04B6E6A
:1000580043D0000EFCD70D0E0B18D8A405D04A507B
:10006800D8A402D0010E19D00A0E0B18D8A417D0A4
:100078004A04D8A414D0340E3225D96EDA6A010E97
:10008800DA22DF6A322B08EC0AF0000E0101326F27
:10009800000E336F010E4C6E000E4A6E1DD0320EEC
:1000A800326118D04A04D8A40BD0000E4A6E340E20
:1000B8003225D96EDA6A010EDA220D0EDF6E322B86
:1000C800340E3225D96EDA6A010EDA220BC0DFFF50
:1000D800322B02D0000E326F9D8A0AC0DAFF09C0A7
:1000E800D9FF08C0E2FF07C0E1FF5092110084EF7A
:0200F80009F00D
:100600000000000E126E000E136E000E146E000E2F
:10061000156E000E1B6E000E1A6E000E1D6E000E83
:100620001C6E0A0EBCEC0BF0126E290E116E960EAB
:10063000106E7F0EE82EFED7102EFCD7112EFAD7A3
:1006400000000B0EBCEC0BF0136E0C0EBCEC0BF0B0
:10065000146E290E116E960E106E7F0EE82EFED7C8
:10066000102EFCD7112EFAD700000D0EBCEC0BF0AB
:10067000156E135012C010F0116A10C011F0106AFC
:100680001010476E1150486E155014C010F0116ACA
:1006900010C011F0106A10101C6E11501D6E47280A
:1006A00007E14828D8A404D0000E486E000E476E1B
:1006B0001C2807E11D28D8A404D0780E1D6E000E5A
:1006C0001C6E47C01AF048C01BF0340E00016225B2
:1006D000D96E010E6321DA6EDF50106E1050166E67
:1006E000176AFF0E106E770E116E4750105E48505D
:1006F000115A1050165C11501758D8A006D0010E90
:100700000001CF6F070E496E120047C00DF048C0C0
:100710000EF0340E6225D96E010E6321DA6EDF50C1
:100720000F6E88EC0BF0474A482AD00E106ECA0EA6
:10073000E82EFED7102EFCD7000E196E000E186E94
:1007400017D0185047240D6E195048200E6E1850BF
:10075000640FD96EDA6ADF500F6E88EC0BF0D00EA2
:10076000106ECA0EE82EFED7102EFCD7184A192A92
:100770001650185C17501958D8A0E3D716504726C2
:1007800017504822290E116E960E106E7F0EE82E1D
:10079000FED7102EFCD7112EFAD7000048C00CF05F
:1007A0000A0E04EC0BF0290E116E960E106E7F0EE1
:1007B000E82EFED7102EFCD7112EFAD7000047C026
:1007C0000CF00B0E04EC0BF0290E116E960E106E51
:1007D0007F0EE82EFED7102EFCD7112EFAD7000080
:1007E0001C287F0E1D58D8B08AD71CC00DF01DC024
:1007F0000EF01BC00FF088EC0BF0D00E106ECA0E7E
:10080000E82EFED7102EFCD7010E1C240D6E000E14
:100810001D200E6E1AC00FF088EC0BF0020E1C2685
:10082000000E1D22290E116E960E106E7F0EE82E00
:10083000FED7102EFCD7112EFAD700001DC00CF0E9
:100840000C0E04EC0BF0290E116E960E106E7F0E3E
:10085000E82EFED7102EFCD7112EFAD700001CC0B0
:100860000CF00D0E04EC0BF0290E116E960E106EAE
:100870007F0EE82EFED7102EFCD7112EFAD70000DF
:1008800060C094F061C095F01BC096F01AC097F05C
:10089000000198691200000E0001D86F000EDA6F97
:1008A000000ED96F780ED16F000ED06F000EDD6F85
:1008B000000EDE6F000EDF6F000EDC6F000EDB6FD0
:1008C000DBC00DF0DCC00EF05BEC0BF00001D86F6C
:1008D000D829D8A406D0010ED925D96F000EDA2167
:1008E000DA6FDB4BDC2B780EDC5DD8A0E9D7D0C00B
:1008F00014F0D1C015F023EC0BF014C01BF015C0A0
:100900001CF016C01DF0D9C014F0DAC015F023ECAD
:100910000BF014C018F015C019F016C01AF04FEC07
:1009200007F018C027F019C028F01AC029F0000EEF
:100930002A6EC80E2B6E420E2C6ED5EC06F027C028
:10094000DDF028C0DEF029C0DFF0C80E0001DE199E
:1009500005E1420EDF19DD11D8B414D0DDC027F057
:10096000DEC028F0DFC029F0000E2A6E200E2B6EAC
:10097000410E2C6ED5EC06F027C0DDF028C0DEF06D
:1009800029C0DFF0000E1B6EC80E1C6E420E1D6EDD
:10099000DDC018F0DEC019F0DFC01AF04FEC07F030
:1009A00018C027F019C028F01AC029F0C2EC07F0CF
:1009B00027C0D2F028C0D3F0000E396E0A0E386E70
:1009C000DDC027F0DEC028F0DFC029F0C2EC07F060
:1009D00027C036F028C037F0C6EC09F036C03EF02C
:1009E00037C03FF0000E416E0A0E406E80EC0AF0F8
:1009F0003EC0D4F03FC0D5F0DDC027F0DEC028F007
:100A0000DFC029F0C2EC07F027C03EF028C03FF05D
:100A1000000E416E0A0E406E80EC0AF03EC0D6F029
:100A20003FC0D7F060C094F061C095F00001D25192
:100A3000E00FD96EDA6ADF50966FD451E00FD96EAD
:100A4000DA6ADF50976FD651E00FD96EDA6ADF505D
:100A5000986F1200000E196E000E136E000E186EC5
:100A6000020E126E000E156E000E146E000E196E40
:100A70000BD01950640FD96EDA6A1950160FE16E57
:100A8000E26ADFCFE7FF192A1250195CD8A0F1D72C
:100A90001650C9EC0BF01750C9EC0BF0175016C0EC
:100AA00010F0116A10C011F0106A1010146E11507D
:100AB000156E050E116E0F0E106EF10EE82EFED79C
:100AC000102EFCD7112EFAD7000014C00DF015C05F
:100AD0000EF05BEC0BF0106E10501A6E1B6A050ED8
:100AE000116E0F0E106EF10EE82EFED7102EFCD7F1
:100AF000112EFAD700001B50C9EC0BF01A50C9ECAC
:100B00000BF0144A152A1A281B10D8A404D0FF0E83
:100B1000C9EC0BF0120060C094F061C095F0020EB9
:100B20001826000E1D6E000E1C6E1BD01850940F60
:100B30001C24D96EDA6A1C5014240D6E1D50152029
:100B40000E6E5BEC0BF0DF6E1850940F1C24D96E08
:100B5000DA6ADF50C9EC0BF018501C24136E1C4AE3
:100B60001D2A1A501C5C1B501D58D8A0DFD71350EB
:100B7000950FD96EDA6ADF6A12000E6E3A0EC9EC72
:100B80000BF0D00E0D6ECA0EE82EFED70D2EFCD740
:100B9000230EC9EC0BF0D00E0D6ECA0EE82EFED758
:100BA0000D2EFCD70E50D8A41BD0000E106E000ED8
:100BB0000F6E0F50940FD96EDA6ADF50C9EC0BF04C
:100BC000D00E0D6ECA0EE82EFED70D2EFCD70F4AA2
:100BD000102A105028E1320E0F5CD8B024D0E9D78B
:100BE000210EC9EC0BF0D00E0D6ECA0EE82EFED70A
:100BF0000D2EFCD7FE0EC9EC0BF0D00E0D6ECA0EFA
:100C0000E82EFED70D2EFCD74950C9EC0BF0D00EC4
:100C10000D6ECA0EE82EFED70D2EFCD7000E000179
:100C2000CF6F000E496E0D0EC9EC0BF0D00E0D6E9D
:100C3000CA0EE82EFED70D2EFCD70A0EC9EC0BF01B
:100C4000000E106E320E0F6E0DD00F506608D96E6A
:100C50001050D8A0E82A0108DA6EFF0EDF6E0F06EA
:100C6000D8A010060F501010D8A4EFD7000E106EA9
:100C7000000E0F6E08D00F50940FD96EDA6AFF0E77
:100C8000DF6E0F4A102A105005E1320E0F5CD8B00B
:100C90001200F1D71200000E166E000E126E000E3A
:100CA000136E000E156E340E00016225D96E010E12
:100CB0006321DA6EDF50146E080E146405D0010E45
:100CC000CF6F050E496E1200520E116E2B0E106E74
:100CD000000EE82EFED7102EFCD7112EFAD700D02A
:100CE00014C00CF0000E04EC0BF0520E116E2B0E23
:100CF000106E000EE82EFED7102EFCD7112EFAD75C
:100D000000D0152A000E166E26D0290E116E960EF2
:100D1000106E7F0EE82EFED7102EFCD7112EFAD7BC
:100D200000001650640FD96EDA6ADF500C6E155051
:100D3000162404EC0BF0290E116E960E106E7F0E29
:100D4000E82EFED7102EFCD7112EFAD70000155032
:100D50001624126E162A1450165CD8A0D6D7090E87
:100D6000116E1E0E106EE40EE82EFED7102EFCD76C
:100D7000112EFAD700D01250BCEC0BF0136E090EF6
:100D8000116E1E0E106EE40EE82EFED7102EFCD74C
:100D9000112EFAD700D0000E0001CF6F60C094F082
:100DA00061C095F013C096F0120029C02DF02E6A94
:100DB0002F6A28342D3601E32E802D50306E3050AE
:100DC000D8A407D0000E276E000E286E000E296EE4
:100DD00012002CC02DF02E6A2F6A2B342D3601E321
:100DE0002E802D50356E3550D8A407D0000E276EBA
:100DF000000E286E000E296E120035507B0F302633
:100E000029C035F02C50351A800E3516288E2B8EC1
:100E1000FF0E2A16FF0E2B16000E2C16000E316E3A
:100E2000000E326E000E336E070E346E27A006D011
:100E30002A5031262B5032222C503322D89029327E
:100E400028322732D8902A362B362C36342EEED73D
:100E5000090E346E27A006D02A5031262B5032229C
:100E60002C503322D890293228322732D89033326E
:100E700032323132342EEED731C00CF032C00DF0A8
:100E800033C00EF030C00FF035C010F083EC08F026
:100E90000CC027F00DC028F00EC029F012001AC0B7
:100EA0001EF01F6A206A19341E3601E31F801E508F
:100EB000256E2550D8A407D0000E186E000E196EAE
:100EC000000E1A6E12001DC01EF01F6A206A1C342C
:100ED0001E3601E31F801E50266E2650D8A407D070
:100EE000000E186E000E196E000E1A6E1200000E23
:100EF000226E000E236E000E246E2650890F255E92
:100F00001AC026F01D50261A800E2616198EFF0EC6
:100F10001816FF0E1916000E1A161C8EFF0E1B1641
:100F2000FF0E1C16000E1D16180E216ED8902236CC
:100F3000233624361B50185C1C5019581D501A5863
:100F4000D8A007D01B50185E1C50195A1D501A5AB1
:100F50002280D890183619361A36212EE7D722C0AB
:100F60000CF023C00DF024C00EF025C00FF026C0F9
:100F700010F083EC08F00CC018F00DC019F00EC092
:100F80001AF0120029C02BF02C6A2D6A28342B3657
:100F900001E32C802B50356E3550D8A409D0000EBB
:100FA000276E000E286E000E296E000E2A6E1200AB
:100FB000170E2B6E27C02CF028C02DF029C02EF064
:100FC0002B282F6E04D0D8902E322D322C322F2E7B
:100FD000FAD72C50306E288EFF0E2716FF0E2816DB
:100FE000000E29162750316E2850326E2950336E6C
:100FF000346A8E0E355E35AE0DD03550800A8F0FB7
:10100000D8A0CDD7D8903432333232323132353E57
:10101000F9D70DD0170E356407D0C1D7D890313627
:1010200032363336343635063550D8A4F7D73050FB
:10103000D8B408D0341E331E321E316C000E32225A
:101040003322342231C027F032C028F033C029F0D7
:1010500034C02AF0120061C044F00001EA51D8A463
:1010600004D0010ECF6F030E496E210E6019D8A473
:1010700041D0CF51D8B424D0120E4418D8B420D0C7
:101080003DD0B2EC0BF03AD001EC03F037D02AECB3
:1010900005F034D04BEC04F031D072EC0BF02ED0D4
:1010A00031EC09F02BD04BEC06F028D045EC0AF0DF
:1010B0000009D8A423D0010E0001CF6F040E1DD06B
:1010C0004450010AD8B4E0D7030AD8B4E0D7010AE3
:1010D000D8B4E3D7070AD8B4DDD7140AD8B4E0D718
:1010E000010AD8B4CED7030AD8B4DDD7010AD8B4E0
:1010F000DDD704D0010ECF6F060E496E0001CF512F
:10110000BDEC05F012000F50D8B405D00C500D10F6
:101110000E10D8A40CD0000E0C6E000E0D6E000E3A
:101120000E6E12000F2AD8900E320D320C32000EC5
:101130000C14116E000E0D14126EFE0E0E14136EB2
:10114000115012101310D8B40CD0ECD70F2A010E86
:101150000C26000E0D22000E0E22D8900E320D32FB
:101160000C32000E0C14116E000E0D14126EFF0ED8
:101170000E14136E115012101310D8B406D0E6D707
:101180000F06D8900C360D360E360DBE03D0020E6B
:101190000F60F6D70FA00D9ED8900F320F500E1291
:1011A0001050D8A40E8E0CC00CF00DC00DF00EC067
:1011B0000EF01200000E0F6E290E0E6E960E0D6EC2
:1011C0007F0EE82EFED70D2EFCD70E2EFAD700008C
:1011D000000EBCEC0BF0106E290E0E6E960E0D6E0E
:1011E0007F0EE82EFED70D2EFCD70E2EFAD700006C
:1011F0000F2A1028D8B42FD0000E116E22D0290E3D
:101200000E6E960E0D6E7F0EE82EFED70D2EFCD7BD
:101210000E2EFAD700001150C60FD96EDA6A0F50A1
:101220001124BCEC0BF0DF6E290E0E6E960E0D6EC7
:101230007F0EE82EFED70D2EFCD70E2EFAD700001B
:10124000112A1050115CD8A0DAD7000E0001CF6F20
:10125000000E496E03D0000E0001EA6F10C0CEF000
:1012600012001268000E146E000E136E1450C9ECBA
:101270000BF01350C9EC0BF0D00E106ECA0EE82E16
:10128000FED7102EFCD713C00DF014C00EF012C004
:101290000FF088EC0BF0134A142A800E145CD8A0CF
:1012A000E5D7290E116E960E106E7F0EE82EFED732
:1012B000102EFCD7112EFAD70000FF0E0C6E0A0E6E
:1012C00004EC0BF0290E116E960E106E7F0EE82EB8
:1012D000FED7102EFCD7112EFAD70000FF0E0C6E91
:1012E0000B0E04EC0BF0290E116E960E106E7F0E95
:1012F000E82EFED7102EFCD7112EFAD7000060C0C2
:1013000094F061C095F012009E0EF66E170EF76E07
:10131000000EF86E00EEE0F010EE0BF00900F5CFD5
:10132000EEFFE550E150FAE1BE0EF66E170EF76ED5
:10133000000EF86E0900F5CF4DF00900F5CF4EF024
:101340000900F5CF4FF001EE66F011EE90F0EE6A75
:10135000E550E150FCE1E250FAE101EE00F0660EEA
:10136000EE6AE806FDE100EE60F0700EEE6AE80657
:10137000FDE14C6A4B6A4A6A496A486A476A50907A
:101380005092000EF86E0001B8EF0AF0000E3B6EAE
:1013900039AE06D0386C391ED8B0392A010E3B6EF2
:1013A00037AE06D0366C371ED8B0372A010E3B1A3E
:1013B000000E3D6E000E3C6E38503910D8B41CD073
:1013C000010E3A6E04D0D890383639363A2A39AE02
:1013D000FAD7D8903C363D363850365C39503758BD
:1013E000D8A005D03850365E3950375A3C80D89056
:1013F000393238323A2EEDD73B50D8B404D03C6C59
:101400003D1ED8B03D2A3CC036F03DC037F012003A
:10141000000E046E000E036E000E026E000E016ED2
:1014200034C160F035C161F0020E00016119D8B419
:1014300027D0000E066E000E056E14D0360E052461
:10144000D96E010E0620DA6E0550640FE16EE26A75
:10145000DFCFE7FF020E0524036E000E0620046EA8
:10146000054A062A360E0524D96E010E0620DA6ECC
:10147000DF50D8A4E3D703C062F004C063F01200C9
:1014800036C164F037C165F01200000E116E010E16
:10149000106E340E00016225D96E010E6321DA6EE2
:1014A000DF500F6E0F50CE19D8B402D0000E1200CC
:1014B000000E116E1ED01150C60FD96EDA6ADF50C1
:1014C000C9EC0BF01150640FD96EDA6ADF50C9EC29
:1014D0000BF01150640FD96EDA6A1150C60FE16E2D
:1014E000E26ADE50E618D8B403D0000E106E06D0C3
:1014F000112A0001CE51115CD8A0DDD71050120086
:10150000000E436E3FAE06D03E6C3F1ED8B03F2A61
:10151000010E436E41AE04D0406C411ED8B0412A4A
:1015200040504110D8B418D0010E426E04D0D8906B
:1015300040364136422A41AEFAD740503E5C4150D7
:101540003F58D8A004D040503E5E41503F5AD890FA
:1015500041324032422EF1D74350D8B404D03E6CD1
:101560003F1ED8B03F2A3EC03EF03FC03FF01200C1
:10157000700ED36EC00E9B6E3FEC0BF0A6EC0BF022
:10158000DAEC08F0090E466E1E0E456EE40EE82EEB
:10159000FED7452EFCD7462EFAD700D0E4EC0AF051
:1015A000090E466E1E0E456EE40EE82EFED7452E41
:1015B000FCD7462EFAD700D04C50D8B4FDD72BEC30
:1015C00008F0000E4C6EF8D7780E116E000E106EFB
:1015D000000E136E000E126E660E1224D96E010EEE
:1015E0001320DA6E125010240D6E135011200E6E5F
:1015F0005BEC0BF0DF6E124A132A900E125C010EA8
:101600001358D8B01200E8D70F6E290E0E6E960E42
:101610000D6E7F0EE82EFED70D2EFCD70E2EFAD7BC
:1016200000000FC0A9FF0CC0A8FFA69EA69CA68420
:10163000F29E550EA76EAA0EA76EA682F28EA1A8E4
:10164000FED7A1981200000E176E15AE06D0146CCE
:10165000151ED8B0152A010E176E14C00CF015C057
:101660000DF00E6A8E0E0F6E17C010F083EC08F0AE
:101670000CC014F00DC015F00EC016F01200949CB2
:10168000948E0F013A9FF28EF28C9D8A200EAC6EE2
:10169000900EAB6E550E366ECE0E376E420E386E15
:1016A00036C027F037C028F038C029F0C2EC07F068
:1016B0002750AF6E1200DAEC0BF0A00E9AEC0BF094
:1016C0000E509AEC0BF00D509AEC0BF0DAEC0BF09C
:1016D000A10E9AEC0BF0C3EC0BF00F6ED5EC0BF0F7
:1016E0000F501200000E0E6E000E0D6E660E0D24D1
:1016F000D96E010E0E20DA6EDF50C9EC0BF00D4AE8
:101700000E2A900E0D5C010E0E58D8B01200EED7C6
:10171000DAEC0BF0A00E9AEC0BF04F6E0E509AEC38
:101720000BF00D509AEC0BF00F509AEC0BF0D5EC3F
:101730000BF012000C6E0CC0C9FF9EA6FED79E9641
:10174000C5AC02D0010E1200000E120094889486DF
:101750000F013A973A99800EC76E280EC66E9F0EFB
:10176000C86E120060C094F061C095F0000E0001D8
:10177000966F000E976F12000C6E0CC0A9FFA69E0C
:10178000A680A8501200C5869EA6FED79E96C95078
:1017900012000C6E9EA8FED70CC0ADFF1200000117
:0917A00002030405060708090113
:1017AA00C5849EA6FED79E961200C5809EA6FED729
:0717BA009E961200E80301F6
:020000040030CA
:0E000000FF380F3CFFBF85FF0FC00FE00F4021
:00000001FF
