:0400000071EF00F0AC
:100008003482E1CF07F0E2CF08F0D9CF09F0DACF98
:100018000AF09EAA58D0AECF0BF000019351D8A495
:1000280017D03A0E0B18D8A405D03250D8A402D055
:10003800010E321A230E0B18D8A444D03204D8A4C7
:1000480041D0010E936F000E926F010E321A3AD012
:100058000D0E0B18D8A405D03150D8A402D0010E2B
:1000680016D00A0E0B18D8A414D03104D8A411D075
:100078009251C80FD96EDA6ADF6A922B37EC04F016
:10008800000E926F000E936F010E336E000E316EEC
:1000980019D0320E926114D03104D8A409D0010EBF
:1000A800311A9251C80FD96EDA6A0D0EDF6E922B93
:1000B8009251C80FD96EDA6A0BC0DFFF922B02D0BB
:1000C800000E926F9E9A0AC0DAFF09C0D9FF08C0D5
:0E00D800E2FF07C0E1FF3492110066EF04F072
:10060000000000019651C80FD96EDA6ADF50106EF3
:100610001050136E146A2FC00DF030C00EF09651BA
:10062000C80FD96EDA6ADF500F6EC9EC04F02F4A9A
:10063000302AD00E106ECA0EE82EFED7102EFCD730
:10064000000E166E000E156E17D015502F240D6E6D
:10065000165030200E6E1550980FD96EDA6ADF50A2
:100660000F6EC9EC04F0D00E106ECA0EE82EFED745
:10067000102EFCD7154A162A1350155C1450165824
:10068000D8A0E3D713502F2614503022090E116E34
:100690001E0E106EE40EE82EFED7102EFCD7112E83
:1006A000FAD700D024EC05F0A00EEBEC04F0FF0E1E
:1006B0002F24106EFF0E3020116E11C010F0116A41
:1006C0001050EBEC04F02F04EBEC04F024EC05F0FC
:1006D000A10EEBEC04F013EC05F0126E1FEC05F02C
:1006E00094C02BF095C02CF012C02DF02A50D8A445
:1006F00002D0010E01D0000E2E6E12000EC010F0BE
:10070000116A126A0D34103601E3118010501A6E0E
:100710001A50D8A409D0000E0C6E000E0D6E000EFB
:100720000E6E000E0F6E1200170E106E0CC011F040
:100730000DC012F00EC013F01028146E04D0D89023
:10074000133212321132142EFAD71150156E0D8E4B
:10075000FF0E0C16FF0E0D16000E0E160C50166E28
:100760000D50176E0E50186E196A8E0E1A5E1AAE64
:100770000DD01A50800A8F0FD8A0CDD7D89019323B
:100780001832173216321A3EF9D70DD0170E1A64E6
:1007900007D0C1D7D89016361736183619361A062C
:1007A0001A50D8A4F7D71550D8B408D0191E181E5F
:1007B000171E166C000E17221822192216C00CF0F4
:1007C00017C00DF018C00EF019C00FF012003A0E4D
:1007D00019EC05F0D00E0D6ECA0EE82EFED70D2EC8
:1007E000FCD7230E19EC05F0D00E0D6ECA0EE82EC4
:1007F000FED70D2EFCD7000E0F6E000E0E6E0E50A3
:100800002B0FD96EDA6ADF5019EC05F0D00E0D6EA1
:10081000CA0EE82EFED70D2EFCD70E4A0F2A0F5017
:1008200004E1040E0E5CD8A0EAD70D0E19EC05F019
:10083000D00E0D6ECA0EE82EFED70D2EFCD70A0E76
:1008400019EC05F0000E0F6E000E0E6E08D00E5063
:10085000C80FD96EDA6AFF0EDF6E0E4A0F2A0F50EC
:1008600005E1320E0E5CD8B01200F1D71200000E76
:10087000046E000E036E000E026E000E016EC8C004
:1008800094F0C9C095F0000E066E000E056E12D0F1
:100890000550CA0FD96EDA6A0550980FE16EE26A08
:1008A000DFCFE7FF020E0524036E000E0620046E64
:1008B000054A062A0550CA0FD96EDA6ADF50D8A455
:1008C000E7D703C096F004C097F01200180EF66E3A
:1008D0000A0EF76E000EF86E00EE1EF010EE0DF030
:1008E0000900F5CFEEFFE550E150FAE100EE60F0CF
:1008F0009A0EEE6AE806FDE100EE2BF0090EEE6AB4
:10090000E806FDE134903492000EF86E0001DBEF52
:1009100004F095C017F0210E00019419D8A412001C
:1009200006D003EC05F013D001EC03F010D0175003
:10093000010AD8B4F9D7030AD8B409D0010AD8B447
:1009400006D0070AD8B403D0150AD8B4EAD7E7EC22
:1009500003F01200550E1B6ECE0E1C6E420E1D6E65
:100960001BC00CF01CC00DF01DC00EF07EEC03F09F
:100970000C50AF6E0F0EE06E5F0E946E7C0E3A6FF1
:10098000C00EF26E200E9D6E200EAC6E900EAB6E01
:10099000120024EC05F0A00EEBEC04F02A6E0E50D1
:1009A000EBEC04F00D50EBEC04F00F50EBEC04F02A
:1009B0001FEC05F01200700ED36EC00E9B6EAAECF9
:1009C00004F0F7EC04F03350D8B4FDD789EC04F010
:1009D000000E336EF8D70C6E0CC0C9FF9EA6FED772
:1009E0009E96C5AC02D0010E1200000E1200948833
:1009F00094860F013A973A99800EC76E280EC66EFC
:100A00009F0EC86E120094C02BF095C02CF0000E03
:100A10002D6E000E2E6E1200000102030405060763
:050A20000809E80301D4
:100A2600C5869EA6FED79E96C95012000C6E9EA83D
:100A3600FED70CC0ADFF1200C5849EA6FED79E96BB
:0C0A46001200C5809EA6FED79E961200EE
:020000040030CA
:0E000000FF380F3CFFBF85FF0FC00FE00F4021
:00000001FF
