:0400000074EF00F0A9
:100008005482E1CF35F0E2CF36F0D9CF37F0DACFEE
:1000180038F09EAA5BD0AECF39F09D9A000193517B
:10002800D8A419D03A0E3918D8A405D02D50D8A480
:1000380002D0010E0CD0230E3918D8A40AD02D04F2
:10004800D8A407D0010E936F000E926F02D02D6EC8
:100058003CD0000EFCD70D0E3918D8A405D02C5072
:10006800D8A402D0010E16D00A0E3918D8A414D07C
:100078002C04D8A411D09251C80FD96EDA6ADF6A5D
:10008800922B6AEC06F0000E926F000E936F010E31
:100098002E6E000E2C6E19D0320E926114D02C04E4
:1000A800D8A409D0000E2C6E9251C80FD96EDA6A06
:1000B8000D0EDF6E922B9251C80FD96EDA6A39C0D5
:1000C800DFFF922B02D0000E926F9D8A38C0DAFFB4
:1000D80037C0D9FF36C0E2FF35C0E1FF54921100A6
:0400E800CCEF06F063
:100600000000000E0101006F000E016F000E056F6B
:10061000000E046F0A0E8DEC07F00101006F290E29
:100620003F6E960E3E6E7F0EE82EFED73E2EFCD716
:100630003F2EFAD700000B0E8DEC07F00101016F81
:10064000015100C13EF03F6A3EC03FF03E6A3E109D
:10065000286E3F50296E282807E12928D8A404D005
:10066000000E296E000E286E28C004F129C005F185
:1006700000019651C80FD96EDA6ADF503E6E3E50C7
:100680000101026F036B28C03BF029C03CF0000160
:100690009651C80FD96EDA6ADF503D6E53EC07F001
:1006A000284A292AD00E3E6ECA0EE82EFED73E2ECC
:1006B000FCD7000E0101076F000E066F18D006511F
:1006C00028243B6E075129203C6E0651980FD96EA5
:1006D000DA6ADF503D6E53EC07F0D00E3E6ECA0E64
:1006E000E82EFED73E2EFCD70101064B072B025108
:1006F000065D03510759D8A0E2D7025128260351BD
:100700002922290E3F6E960E3E6E7F0EE82EFED7F2
:100710003E2EFCD73F2EFAD7000029C03AF00A0E31
:10072000EFEC06F0290E3F6E960E3E6E7F0EE82E21
:10073000FED73E2EFCD73F2EFAD7000028C03AF055
:100740000B0EEFEC06F0290E3F6E960E3E6E7F0EFE
:10075000E82EFED73E2EFCD73F2EFAD7000094C0DD
:1007600001F095C002F005C103F004C104F0000ED1
:10077000056E1200000E0101076F000E016F000EE2
:10078000026F020E006F000E046F000E036F000E6A
:10079000076F0DD00751980FD96EDA6A050E07253D
:1007A000E16EE26A010EE222DFCFE7FF072B005184
:1007B000075DD8A0EFD7055106C13EF03F6A3EC0A5
:1007C0003FF03E6A3E10036F3F50046F06519AECB3
:1007D00007F0010105519AEC07F0050E3F6E0F0E70
:1007E0003E6EF10EE82EFED73E2EFCD73F2EFAD7F6
:1007F000000003C13BF004C13CF02AEC07F03E6E60
:100800003E5001010A6F0B6B050E3F6E0F0E3E6EE0
:10081000F10EE82EFED73E2EFCD73F2EFAD7000071
:1008200001010B519AEC07F001010A519AEC07F013
:100830000101034B042B0A290B11D8A404D0FF0E8D
:100840009AEC07F0120094C001F095C002F0020E7D
:100850000227000E096F000E086F14D00251010F1D
:100860000825D96EDA6A085103253B6E0951042127
:100870003C6E2AEC07F0DF6E010102510825016F82
:10088000084B092B0A51085D0B510959D8A0E6D72E
:100890000151020FD96EDA6ADF6A1200000E446E4F
:1008A000000E406E000E416E000E436E0001965128
:1008B000C80FD96EDA6ADF50426E080E426404D067
:1008C000FF0E9AEC07F01200520E3F6E2B0E3E6E9A
:1008D000000EE82EFED73E2EFCD73F2EFAD700D0D2
:1008E00042C03AF0000EEFEC06F0520E3F6E2B0EB7
:1008F0003E6E000EE82EFED73E2EFCD73F2EFAD7D6
:1009000000D0432A000E446E26D0290E3F6E960E6C
:100910003E6E7F0EE82EFED73E2EFCD73F2EFAD736
:1009200000004450980FD96EDA6ADF503A6E435097
:100930004424EFEC06F0290E3F6E960E3E6E7F0EBD
:10094000E82EFED73E2EFCD73F2EFAD700004350AC
:100950004424406E442A4250445CD8A0D6D7090EA5
:100960003F6E1E0E3E6EE40EE82EFED73E2EFCD7E6
:100970003F2EFAD700D040508DEC07F0416E090EA3
:100980003F6E1E0E3E6EE40EE82EFED73E2EFCD7C6
:100990003F2EFAD700D0000E2B6E94C001F095C008
:1009A00002F041C003F0000E046E000E056E12004E
:1009B0003C6E3A0E9AEC07F0D00E3B6ECA0EE82E53
:1009C000FED73B2EFCD7230E9AEC07F0D00E3B6EE1
:1009D000CA0EE82EFED73B2EFCD73C50D8A41BD025
:1009E000000E3E6E000E3D6E3D50010FD96EDA6A6C
:1009F000DF509AEC07F0D00E3B6ECA0EE82EFED701
:100A00003B2EFCD73D4A3E2A3E5027E11E0E3D5C60
:100A1000D8B023D0E9D7210E9AEC07F0D00E3B6E68
:100A2000CA0EE82EFED73B2EFCD7FF0E9AEC07F03D
:100A3000D00E3B6ECA0EE82EFED73B2EFCD72A50B6
:100A40009AEC07F0D00E3B6ECA0EE82EFED73B2E76
:100A5000FCD7000E2B6E000E2A6E0D0E9AEC07F0DE
:100A6000D00E3B6ECA0EE82EFED73B2EFCD70A0EE8
:100A70009AEC07F0000E3E6E320E3D6E09D03D50EE
:100A8000FA08D96EDA6AFF0EDF6E3D06D8A03E0680
:100A90003D503E10D8A4F3D7000E3E6E000E3D6EC2
:100AA00008D03D50010FD96EDA6AFF0EDF6E3D4A65
:100AB0003E2A3E5005E11E0E3D5CD8B01200F1D733
:100AC00012003CC03EF03F6A406A3B343E3601E3D0
:100AD0003F803E500001FF6FFF51D8A409D0000EA7
:100AE0003A6E000E3B6E000E3C6E000E3D6E120024
:100AF000170E3E6E3AC03FF03BC040F03CC041F0A4
:100B00003E28426E04D0D890413240323F32422ECD
:100B1000FAD73F500001FA6F3B8EFF0E3A16FF0ED8
:100B20003B16000E3C163A50FB6F3B50FC6F3C509E
:100B3000FD6FFE6B8E0EFF5FFFAF0DD0FF51800A81
:100B40008F0FD8A0CCD7D890FE33FD33FC33FB33C6
:100B5000FF3FF9D70DD0170EFF6507D0C0D7D8904B
:100B6000FB37FC37FD37FE37FF07FF51D8A4F7D717
:100B7000FA51D8B408D0FE1FFD1FFC1FFB6D000EFC
:100B8000FC23FD23FE23FBC03AF0FCC03BF0FDC07C
:100B90003CF0FEC03DF01200000E3D6E290E3C6E92
:100BA000960E3B6E7F0EE82EFED73B2EFCD73C2EDA
:100BB000FAD70000000E8DEC07F03E6E290E3C6E59
:100BC000960E3B6E7F0EE82EFED73B2EFCD73C2EBA
:100BD000FAD700003D2A3E28D8B42ED0000E3F6E32
:100BE00022D0290E3C6E960E3B6E7F0EE82EFED76D
:100BF0003B2EFCD73C2EFAD700003F501F0FD96E7A
:100C0000DA6A3D503F248DEC07F0DF6E290E3C6E12
:100C1000960E3B6E7F0EE82EFED73B2EFCD73C2E69
:100C2000FAD700003F2A3E503F5CD8A0DAD7000E2A
:100C30002B6E000E2A6E02D0000E526E3EC027F0C0
:100C4000120095C045F05250D8A404D0010E2B6E6E
:100C5000030E2A6E210E00019419D8A412002B5005
:100C6000D8B41ED0F10E4518D8B41AD02FD07DECD0
:100C700007F02CD001EC03F029D00F0E9AEC07F00E
:100C8000BAEC03F023D04EEC04F020D0A2EC06F036
:100C90000009D8A41BD0010E2B6E040E2A6E16D0AC
:100CA0004550010AD8B4E6D7030AD8B4E6D7010AFA
:100CB000D8B40CD0120AD8B4DAD7E10AD8B406D026
:100CC000010AD8B4E0D7030AD8B4E0D72B50D8EC47
:100CD00004F01200000E326E000E316E000E306E07
:100CE000000E2F6EC8C094F0C9C095F0020E951981
:100CF000D8B423D0000E346E000E336E12D03350B1
:100D0000CA0FD96EDA6A3350980FE16EE26ADFCF0C
:100D1000E7FF020E3324316E000E3420326E334A68
:100D2000342A3350CA0FD96EDA6ADF50D8A4E7D715
:100D300031C096F032C097F01200CAC098F0CBC014
:100D400099F01200000E3E6E010E3D6E00019651AC
:100D5000C80FD96EDA6ADF503C6E3C502718D8B401
:100D600002D0000E1200000E3E6E10D03E50980FC2
:100D7000D96EDA6A3E501F0FE16EE26ADE50E61865
:100D8000D8B403D0000E3D6E05D03E2A27503E5CFD
:100D9000D8A0ECD73D5012000C0EF66E0F0EF76E79
:100DA000000EF86E00EE46F010EE0EF00900F5CFE2
:100DB000EEFFE550E150FAE100EE60F09A0EEE6AC7
:100DC000E806FDE100EE01F02E0EEE6AE806FDE118
:100DD00054905492000EF86E000141EF07F03D6E02
:100DE000290E3C6E960E3B6E7F0EE82EFED73B2EF4
:100DF000FCD73C2EFAD700003DC0A9FF3AC0A8FF9F
:100E0000A69EA69CA684F29E550EA76EAA0EA76E5D
:100E1000A682F28EA1A8FED7A1981200949C948E6F
:100E20000F013A9FF28EF28C9D8A200EAC6E900ECE
:100E3000AB6E550E436ECE0E446E420E456E43C0F1
:100E40003AF044C03BF045C03CF061EC05F03A504C
:100E5000AF6E1200A5EC07F0A00E65EC07F03C5059
:100E600065EC07F03B5065EC07F0A5EC07F0A10E30
:100E700065EC07F094EC07F03D6EA0EC07F03D50F8
:100E80001200700ED36EC00E9B6E0EEC07F071EC6C
:100E900007F0CCEC05F02E50D8B4FDD721EC06F0CD
:100EA000000E2E6EF8D7A5EC07F0A00E65EC07F04B
:100EB000536E3C5065EC07F03B5065EC07F03D503D
:100EC00065EC07F0A0EC07F012003A6E3AC0C9FFDB
:100ED0009EA6FED79E96C5AC02D0010E1200000E53
:100EE0001200948894860F013A973A99800EC76E43
:100EF000280EC66E9F0EC86E120094C001F095C0F9
:100F000002F0000E036E000E046E120000010203D8
:100F1000040506070809E80301013A6E3AC0A9FF73
:100F2000A69EA680A8501200C5869EA6FED79E96B5
:100F3000C95012003A6E9EA8FED73AC0ADFF12000B
:100F4000C5849EA6FED79E961200C5809EA6FED79B
:040F50009E96120057
:020000040030CA
:0E000000FF380F3CFFBF85FF0FC00FE00F4021
:00000001FF
