:04000000B4EF00F069
:100008003782E1CF07F0E2CF08F0D9CF09F0DACF95
:100018000AF09EAA12EF00F014EF00F0AAEF00F029
:10002800AECF0BF09D9A00019351D8A41EEF00F0BB
:1000380020EF00F04CEF00F03A0E0B18D8A427EF91
:1000480000F029EF00F033EF00F02850D8A42FEF8C
:1000580000F031EF00F033EF00F0010E281A230E04
:100068000B18D8A43AEF00F03CEF00F0A9EF00F02D
:100078002804D8A442EF00F044EF00F0A9EF00F004
:10008800010E936F000E926F010E281AA9EF00F06F
:100098000D0E0B18D8A453EF00F055EF00F061EFE8
:1000A80000F02750D8A45BEF00F05DEF00F061EF9F
:1000B80000F0010E276EA9EF00F00A0E0B18D8A465
:1000C80068EF00F06AEF00F085EF00F02704D8A48D
:1000D80070EF00F072EF00F085EF00F09251C80F5A
:1000E800D96EDA6ADF6A922B97EC04F0000E0001F1
:1000F800926F000E936F010E296E000E276EA9EF06
:1001080000F0320E92618BEF00F08DEF00F0A7EF58
:1001180000F02704D8A493EF00F095EF00F09EEFCD
:1001280000F0000E276E9251C80FD96EDA6A0D0ED4
:10013800DF6E922B9251C80FD96EDA6A0BC0DFFFBF
:10014800922BA9EF00F0000E926F9D8A0AC0DAFF89
:1001580009C0D9FF08C0E2FF07C0E1FF37921100CC
:04016800FCEF04F0B4
:100600000000000E126E000E136E000E176E000E2C
:10061000166E0A0ECBEC05F0126E290E116E960EB8
:10062000106E7F0EE82EFED7102EFCD7112EFAD7B3
:1006300000000B0ECBEC05F0136E135012C010F03F
:10064000116A10C011F0106A1010256E1150266E3C
:10065000252806E12628D8A430EF03F032EF03F076
:1006600036EF03F0000E266E000E256E25C016F044
:1006700026C017F000019651C80FD96EDA6ADF5014
:10068000106E1050146E156A25C00DF026C00EF0C5
:100690009651C80FD96EDA6ADF500F6E85EC05F0FF
:1006A000254A262AD00E106ECA0EE82EFED7102E2E
:1006B000FCD7000E196E000E186E76EF03F018507E
:1006C00025240D6E195026200E6E1850980FD96EE5
:1006D000DA6ADF500F6E85EC05F0D00E106ECA0E90
:1006E000E82EFED7102EFCD7184A192A1450185C91
:1006F00015501958D8A07FEF03F081EF03F05FEF9A
:1007000003F0145025261550262226500C6E0A0E92
:100710003FEC05F0050E116E0F0E106EF10EE82E77
:10072000FED7102EFCD7112EFAD7000025C00CF0F2
:100730000B0E3FEC05F0050E116E0F0E106EF10E54
:10074000E82EFED7102EFCD7112EFAD7000094C049
:100750001BF095C01CF017501D6E16C01EF03650D1
:10076000D8B4B5EF03F0B8EF03F0010EB9EF03F022
:10077000000E1F6E12000E340F34156E1550D8A4E3
:10078000C4EF03F0C6EF03F0D0EF03F0000E0C6EE1
:10079000000E0D6E000E0E6E000E0F6E3DEF04F09B
:1007A0000CC010F00DC011F00EC012F00FC013F00D
:1007B000200EE0EF03F0D8901332123211321032D3
:1007C000E82EDBEF03F01050146E0E8EFF0E0C16A9
:1007D000FF0E0D16FF0E0E16000E0F16960E155E6E
:1007E00015BEF7EF03F0F5EF03F00DEF04F0155031
:1007F000800A970FD8B0FFEF03F001EF04F003EF8A
:1008000004F0C6EF03F0D8900F320E320D320C32E6
:10081000153E03EF04F025EF04F01F0E156413EFEF
:1008200004F015EF04F01DEF04F0C6EF03F0D890CC
:100830000C360D360E360F3615061550D8A423EF9C
:1008400004F025EF04F017EF04F01450D8B42BEFA8
:1008500004F02DEF04F035EF04F00F1E0E1E0D1EF8
:100860000C6C000E0D220E220F220CC00CF00DC0DD
:100870000DF00EC00EF00FC00FF012003A0EA3ECF8
:1008800005F0D00E0D6ECA0EE82EFED70D2EFCD749
:10089000230EA3EC05F0D00E0D6ECA0EE82EFED787
:1008A0000D2EFCD7000E0F6E000E0E6E0E501B0F9D
:1008B000D96EDA6ADF50A3EC05F0D00E0D6ECA0EC9
:1008C000E82EFED70D2EFCD70E4A0F2A0F5009E155
:1008D0000A0E0E5CD8A06FEF04F071EF04F056EF33
:1008E00004F00D0EA3EC05F0D00E0D6ECA0EE82E2E
:1008F000FED70D2EFCD70A0EA3EC05F0000E0F6EEE
:10090000320E0E6E8DEF04F00E50FA08D96EDA6AD0
:10091000FF0EDF6E0E06D8A00F060E500F10D8A4E3
:1009200094EF04F096EF04F084EF04F01200000E50
:10093000046E000E036E000E026E000E016EC8C043
:1009400094F0C9C095F0000E066E000E056EBBEF68
:1009500004F00550CA0FD96EDA6A0550980FE16E9F
:10096000E26ADFCFE7FF020E0524036E000E0620C9
:10097000046E054A062A0550CA0FD96EDA6ADF509E
:10098000D8A4C5EF04F0C7EF04F0A9EF04F003C04A
:1009900096F004C097F0120095C01AF0210E0001E5
:1009A0009419D8A4D6EF04F0D8EF04F0FBEF04F0CC
:1009B000E2EF04F0C2EC05F0F9EF04F001EC03F013
:1009C000F9EF04F01A50010AD8B4DEEF04F0030A7C
:1009D000D8B4F9EF04F0010AD8B4F9EF04F0070A2B
:1009E000D8B4F9EF04F0150AD8B4DAEF04F0F9EF4F
:1009F00004F03EEC04F01200A40EF66E0B0EF76E3F
:100A0000000EF86E00EE2AF010EE0DF00900F5CFA2
:100A1000EEFFE550E150FAE100EE60F09A0EEE6A6A
:100A2000E806FDE100EE1BF00F0EEE6AE806FDE1C0
:100A300037903792000EF86E000158EF05F0949C45
:100A4000948E0F013A9FF28EF28C9D8A200EAC6E2E
:100A5000900EAB6E550E166E550E176ECE0E186EAE
:100A6000420E196E16C00CF017C00DF018C00EF033
:100A700019C00FF0BBEC03F00C50AF6E12000D6EFE
:100A80000DC0A9FF0CC0A8FFA69EA69CA684F29E3E
:100A9000550EA76EAA0EA76EA682F28EA088A1A8F8
:100AA00054EF05F056EF05F04FEF05F0A198120056
:100AB000700ED36EC00E9B6E1FEC05F097EC05F028
:100AC0002950D8B466EF05F068EF05F060EF05F047
:100AD000CCEC04F0000E296E60EF05F0B4EF00F0EE
:100AE0000C6E0CC0C9FF9EA678EF05F07AEF05F0FA
:100AF00073EF05F09E96C5BC80EF05F083EF05F01F
:100B0000010E84EF05F0000E1200B8EC05F0A00E07
:100B100070EC05F0366E0E5070EC05F00D5070EC78
:100B200005F00F5070EC05F0AEEC05F01200948863
:100B300094860F013A973A99800EC76E280EC66EBA
:100B40009F0EC86E12000C6E9EA8A9EF05F0ABEFC9
:100B500005F0A4EF05F00CC0ADFF1200C5849EA601
:100B6000B4EF05F0B6EF05F0AFEF05F09E9612007A
:100B7000C5809EA6BEEF05F0C0EF05F0B9EF05F009
:100B80009E96120094C01BF095C01CF0000E1D6EC6
:100B9000000E1E6E12000C6E0CC0A9FFA69EA68051
:100BA000A850120000010203040506070809E80323
:010BB0000143
:020000040030CA
:0E000000FF380F3CFFBF85FF0FC00FE00F4021
:00000001FF
