:0400000025EF00F0F8
:1000080045829EAA0AEF00F00CEF00F013EF00F013
:10001800AE509E9A13EF00F04306D8A044069EBA4D
:1000280018EF00F01AEF00F023EF00F043504410EF
:10003800D8A421EF00F023EF00F010EF00F0459274
:060048001100A4EF03F01B
:100600000000373438343E6E3E50D8A40AEF03F071
:100610000CEF03F016EF03F0000E356E000E366E91
:10062000000E376E000E386E83EF03F035C039F0E0
:1006300036C03AF037C03BF038C03CF0200E26EF11
:1006400003F0D8903C323B323A323932E82E21EF77
:1006500003F039503D6E378EFF0E3516FF0E3616FD
:10066000FF0E3716000E3816960E3E5E3EBE3DEF6C
:1006700003F03BEF03F053EF03F03E50800A970F77
:10068000D8B045EF03F047EF03F049EF03F00CEF6C
:1006900003F0D89038323732363235323E3E49EFA9
:1006A00003F06BEF03F01F0E3E6459EF03F05BEFB6
:1006B00003F063EF03F00CEF03F0D89035363636D5
:1006C000373638363E063E50D8A469EF03F06BEF5C
:1006D00003F05DEF03F03D50D8B471EF03F073EF1A
:1006E00003F07BEF03F0381E371E361E356C000E0C
:1006F00036223722382235C035F036C036F037C0C2
:1007000037F038C038F01200949C948E0F013A9F55
:10071000550E3F6E550E406ECE0E416E420E426E2D
:100720003FC035F040C036F041C037F042C038F02D
:1007300001EC03F03550AF6EF28EF28C9D8A200EE4
:10074000AC6E900EAB6E1200A60EF66E070EF76E34
:10075000000EF86E0900F5CF43F00900F5CF44F024
:1007600000EE01F0340EEE6AE806FDE14590459298
:100770000001BBEF03F0700ED36EC00E9B6E84ECD5
:1007800003F0C7EC03F0C3EF03F025EF00F094880B
:1007900094860F013A973A99800EC76E280EC66E5E
:0807A0009F0EC86E1200E80371
:020000040030CA
:0E000000FF380F3CFFBF85FF0FC00FE00F4021
:00000001FF
