:040000002AEF00F0F3
:100008001482000E026E9EAA0CEF00F00EEF00F0B4
:1000180011EF00F0AECF02F09E9A1350D8A417EF5C
:1000280000F019EF00F028EF00F00204D8A41FEF49
:1000380000F021EF00F025EF00F0010E116E28EF1F
:1000480000F002282AEC04F014921100F8EF03F0F3
:100600000000053406340C6E0C50D8A40AEF03F039
:100610000CEF03F016EF03F0000E036E000E046EF5
:10062000000E056E000E066E83EF03F003C007F0A8
:1006300004C008F005C009F006C00AF0200E26EF3D
:1006400003F0D8900A32093208320732E82E21EF3F
:1006500003F007500B6E058EFF0E0316FF0E0416F7
:10066000FF0E0516000E0616960E0C5E0CBE3DEF34
:1006700003F03BEF03F053EF03F00C50800A970FA9
:10068000D8B045EF03F047EF03F049EF03F00CEF6C
:1006900003F0D89006320532043203320C3E49EFA3
:1006A00003F06BEF03F01F0E0C6459EF03F05BEFE8
:1006B00003F063EF03F00CEF03F0D8900336043639
:1006C000053606360C060C50D8A469EF03F06BEF24
:1006D00003F05DEF03F00B50D8B471EF03F073EF4C
:1006E00003F07BEF03F0061E051E041E036C000ED4
:1006F00004220522062203C003F004C004F005C052
:1007000005F006C006F01200700ED36EC00E9B6E90
:10071000C3EC03F008EC04F03FEC04F0A00EE3ECB3
:1007200003F0136E000EE3EC03F0010EE3EC03F0B4
:100730000A0EE3EC03F035EC04F01150D8B4A3EF4B
:1007400003F0A5EF03F09DEF03F03FEC04F0A00EE3
:10075000E3EC03F0000EE3EC03F0010EE3EC03F036
:100760003FEC04F0A10EE3EC03F01FEC04F0126E7A
:1007700035EC04F0125014EC04F0000E116E9DEFF5
:1007800003F02AEF00F0949C948E0F013A9F550ECF
:100790000D6E550E0E6ECE0E0F6E420E106E0DC00B
:1007A00003F00EC004F00FC005F010C006F001EC1D
:1007B00003F00350AF6EF28EF28C9D8A200EAC6E69
:1007C000900EAB6E1200036E03C0C9FF9EA6EBEF46
:1007D00003F0EDEF03F0E6EF03F09E96C5BCF3EFF8
:1007E00003F0F6EF03F0010EF7EF03F0000E120036
:1007F000920EF66E080EF76E000EF86E0900F5CF39
:1008000013F0126A116A14901492000184EF03F03D
:10081000948894860F013A973A99800EC76E280EF5
:10082000C66E9F0EC86E1200036E9EA81AEF04F0EB
:100830001CEF04F015EF04F003C0ADFF1200C586F5
:100840009EA625EF04F027EF04F020EF04F09E961B
:10085000C9501200016E9EA830EF04F032EF04F090
:100860002BEF04F001C0ADFF1200C5849EA63BEF44
:1008700004F03DEF04F036EF04F09E961200C580C0
:100880009EA645EF04F047EF04F040EF04F09E967B
:0308900012000152
:020000040030CA
:0E000000FF380F3CFFBF85FF0FC00FE00F4021
:00000001FF
